:020000040800F2
:1000000000900020B1F0000801F1000801F10008A3
:1000100000000000000000000000000000000000E0
:1000200000000000000000000000000001F10008D6
:10003000000000000000000001F10008E3D9000802
:1000400001F100080000000001F1000801F10008C2
:1000500001F1000899DA0008A9DA0008B9DA000805
:100060000000000001F1000801F1000801F10008A2
:1000700001F1000891D70008A9D70008000000008E
:10008000B1D70008C9D70008E1D70008F9D70008A0
:1000900011D8000829D8000841D80008CD860008EA
:1000A000E586000801F1000801F100089DE4000860
:0800B000B5E40008D1E40008EA
:1000B80010B50100024800F0BBFA002010BDC04690
:1000C800D021002010B5024800F0B9FA002010BD78
:1000D800D021002010B50100014800F0B4FA10BD8D
:1000E800D02100201FB50F246C44019200940A000F
:1000F8000100034800F0A0FE0020205604B010BD07
:10010800D02100201FB50F246C44019200940A00EE
:100118000100034800F062F80020205604B010BD2A
:10012800D021002007B5009313000A0001000248FF
:1001380000F0EAFD0EBDC046D021002007B50093AF
:1001480013000A000100024800F02EFE0EBDC04652
:10015800D021002030B587B005AC039413240A9D44
:100168006C4400930294130001950A0001000548AD
:1001780000F0BCF900200B9B059A20561A6007B0C6
:1001880030BDC046D021002030B587B005AC0394FF
:1001980013240A9D6C4400930294130001950A00ED
:1001A8000100054800F0FCF900200B9B059A205639
:1001B8001A6007B030BDC046D02100201FB50F24FB
:1001C8006C440192009402000B00034800F040FACE
:1001D8000020205604B010BDD0210020F0B5002426
:1001E8008FB00293149B06921C70029B06001A782B
:1001F8000591A24209D10E2306AA9B181C78002358
:10020800059F0493083703932DE000250020002163
:10021800159B12019A185C739D601C739C7318607F
:10022800596010339A42F6D1E5E703991143A04A81
:100238000391D318013B1D783B68AD0007939D4B94
:100248007519E958079806F0EBFE002825D19A4B56
:100258000798E958103706F0F7FE00281DD1049BCF
:10026800013304930123049A06998A4217DA7B79A9
:100278005C1EE4B2172C01D9FF230AE08F4A012142
:1002880022410A42F8D00A00A24003990A42CCD07F
:10029800FA23149A0024137003E1FE23F9E7002BD4
:1002A80003D00E2306AA9B181C700D2406ABE41875
:1002B80000230AAA237006990CAB059805F0D6F816
:1002C8000C9B1A007E4B9A4202D10D9B002B07D043
:1002D8000A99300005F0E4F8002801D001232370C2
:1002E8000F2306AA9B181A782378059C0393069B6C
:1002F80000211B01E5182300AB4223D06C495A7B2F
:1003080058688A18013A12781F681F32FF32D200E3
:10031800B21811688C4651686246574002004A403C
:100328003A43571EBA411F68D2B2674507D188427F
:1003380005D10399002902D10420149908701033BB
:100348000121D9E7002903D00F2306A95B181A70E9
:10035800A5420ED00D2306AA9B181B78617B01933A
:10036800A368300000932268636801F094FC10349D
:10037800EEE7544B544CF35C002B3FD00D270F2570
:1003880006ABFF183B000CAA0AA9300001F00AFBD3
:1003980006ABED182B000CAA0BA9300001F02EFDBE
:1003A8003B78002B26D02B78002B23D00A980FF00F
:1003B80053FE12F0DDFE0E2506ABED18C0B2434F1A
:1003C8002870F35D834202D00523149A1370335DBD
:1003D8000A9803930FF040FE12F0CAFE0130C0B233
:1003E800039906F0C7FD0122394BF155F2542A78DA
:1003F800384BF254335D384A013BB354364B325DC7
:10040800F15C300000F047FF029B1C78002C3FD0C5
:10041800012500242F006A1E1B2D3CD02F4B1341B1
:100428003B4242D02E4B2F499B5C5B185B00F31874
:100438005B8823498B4238D03B0093402A4AB25804
:100448001A4232D0EBB203930E2306AA9B180093EC
:100458000AAA0CABE9B2300001F0BAFA029B1B7889
:10046800A34201D8032314E00134E4B2159A631EB1
:100478001B01D3186A46127B1F735A730A9A9A6033
:1004880006AA927B9A730C990D9A19605A600CE02F
:100498000223149A13700022134B3000F25004F018
:1004A800D7FD029B1C700FB0F0BD0135B3E7C04605
:1004B8000E810108D40A0000F40A00000F20E000B1
:1004C800FFFF0000B30C0000B20C00007C0C000021
:1004D800B40C0000B50C0000840C0000EF79F203A6
:1004E800908101083B050000540A0000F0B51E0089
:1004F800DF2387B00E9F15003B7000230F9A0390EF
:10050800136010330593172E45D9002943D10124D0
:100518003970621E0C2C1AD0204B13410122134251
:1005280037D00023E1B200930C9A0D9B039801F099
:10053800C5F9031E2DD00D9A310001920C9A28009E
:10054800009205AA04F06AFD3870002821D0002323
:10055800FB56002B1FD10D9A0C99039804F0F6FE58
:10056800031E09D00D9A310001920C9A28000092BE
:1005780005AA04F053FD387000243C57002C0AD11A
:100588000F9B059A19001A60280004F08FFE3C7032
:1005980001E00134BDE707B0F0BDC0461707000011
:1005A800F0B51F00DF2387B016000E9A0F9D137059
:1005B80000232B60103303900593182F33D900299B
:1005C8000DD000240E9B1C57002C2CD1059B290014
:1005D8002B60300004F06AFE0E9B1C7023E001249F
:1005E8000E9B1970621E0C2CEBD0104B134101228C
:1005F800134216D00023E1B200930C9A0D9B039886
:1006080001F096F9031E0CD00D9A390001920C9A4C
:100618003000009205AA04F001FD0E9B1870002816
:10062800CFD10134DEE707B0F0BDC04617070000A0
:1006380002230B704B7000238B70CB70704710B582
:1006480001F042FC10BD10B504F096FF002010BD6B
:10065800F0B599B002920393002200231F9F002453
:100668003A607B603B003933BC60BC81FC811C7004
:100678005C709C70DC701C715C71974B0600C11833
:100688003800143210300EF02BFE3800934B142231
:10069800F3181900243006930EF022FE3B00904D0B
:1006A8003833725D30001A701E9B1C708D4BF35AE4
:1006B8000C9304F0CDFCAC231B01F3181A685B689B
:1006C80011000D951943A1425AD08749745C002C3A
:1006D80056D102980399801A9941002208900991ED
:1006E800824B002082490FF073FE0A900B91814BD8
:1006F800F55A05F0D3FB12F071FD2A00230012F021
:1007080009FD03000C000490059110931194089CB6
:10071800099D001BA941059B764C1A07049BA4461A
:100728001B091343059A1211914202DC1AD198420F
:1007380018D90A980B99AC231B01F3181C685D683B
:100748006346F65A05F0AAFB12F048FD3200002372
:1007580012F0E0FC642324184D411E9A3C607D6031
:10076800137098E208980999049C059D001BA941FB
:10077800914202DC04D1984202D964231E9A137074
:100788005D4BF35C002B00D1C4E00D9B5B4AF35C2E
:10079800B25C013BDBB29A4200D052E2524BF35CAE
:1007A800022B00D04DE2564BF35C002B00D148E2FF
:1007B800544D554B705DF35C544CC01815F00EFB4E
:1007C80002000B00305D03F001FD0130C0B230556E
:1007D800735D4D4A25000C92834200D331E213AC7D
:1007E8001422069920000EF07BFD208815F026FBC8
:1007F8000024049005910134620013ABD05A15F01F
:100808001DFB02000B000498059913F057FD049096
:100818000591092CEFD10C9BF45C12F0DFFC02006F
:100828000B002000002112F075FC8C22002312F02E
:1008380071FC374A00231090119112F06BFC029B57
:10084800039CC0186141002238607960390030008B
:1008580005F036F901237355109B119C04930594F8
:10086800059B002B02DB049B059C10E0049B002BDE
:1008780004D18023059A1B069A4205D00499059A4B
:1008880000244B42944102E080240023240606936E
:100898000794069807990A22002306F00DFC0A22FD
:1008A800002304000D0012F035FC069A079B121A6B
:1008B8008B41002B01D1042A03D901220023A4185B
:1008C8005D41059B002B04DA22002B0000255442D1
:1008D8009D41084BF452D7E19E0C00008A0C0000A1
:1008E800B20C0000240C0000850C000000001C4025
:1008F80000002440220C0000B30C0000B50C0000DE
:10090800B40C0000860C0000870C0000880C000066
:1009180040420F000E250CABED180D230CAA9B18B6
:1009280000953A000121300004F010FC6A462B883B
:10093800148E0C9A9A4200D91C1C0CAB5B7BA4B297
:10094800002B0AD0C8231B01F25C3B003A331A7013
:10095800D24BF25C3B003B331A700D230CAA9B1858
:1009680000953A000221300004F0F0FB2B88221C8D
:100978009C4200D91A1C93B204930D230CAA9B180D
:100988001A78002A09D0C64AB15C3A003C32117084
:10099800C24AB15C3A003B3211700E240CAAA4186A
:1009A80000943A000321300004F0D0FB6A46238803
:1009B800158A049A9A4200D91D1C0D230CAA9B186B
:1009C8001A78ADB2002A14D0B44AB15C3A003B326E
:1009D8001170B44AB449527B52185200B218528866
:1009E800B24922808A4204D08022B96892010A431F
:1009F800BA6000943A000421300004F0A7FB238871
:100A08001C1CAB4200D92C1CA3B204930D230CAAC6
:100A18009B181A78002A00D1AAE03A00012139323D
:100A2800A34C1170325DA349300052185200925BFA
:100A3800BA819B4AB15C3A003C321170974AB15C6A
:100A48003A003B32117013A910AA01F027FA0021CD
:100A5800139806F0DFFA002803D0974BF35C002BBD
:100A680073D0964BF31805CBAD231B01F318196807
:100A78005B6810901192934202DC03D1814201D944
:100A880010911193109B119C02980399C01AA141CF
:100A980012F0E0FB8A4912F0AFFE8121C9051390DC
:100AA8000FF020FC8749041C13980FF01BFC8649A3
:100AB8000690201C13F068F88449041C069813F06B
:100AC80063F8011C201C12F0F9FC139D041C291C5E
:100AD800281C13F059F87E4913F056F8011C201C05
:100AE80012F0ECFC7B49041C281C13F04DF8011C87
:100AF800201C12F0E3FC784912F0E0FC774913F06F
:100B080043F80FF0A9FA12F033FB6B4BF881F35C52
:100B1800002B10D000230193FE239B050093162180
:100B2800029A039B300001F0B6F88023BA689B0351
:100B38001343BB600FE0019300231621009330009C
:100B4800029A039B01F0A7F805E0335D644A9B18FD
:100B58005B009B5BFB81584BF35C002B02D0AD2301
:100B68001B0100E0554BF3180299039A19605A606B
:100B78000299039AAC231B01F31819605A60594B68
:100B88000499F55A280006F0F5F9049B0CAA5C1A9A
:100B9800554BA4B2F452554B2D19F15A0E239B18FC
:100BA8001980A8B206F0E6F94E4B0022F152002057
:100BB8004F4B50490FF00CFC05F070F912F00EFB8A
:100BC8002200002312F0A6FA029C039D24184D412E
:100BD800002220002900384B3C607D60F254374BDE
:100BE800454FF3181A685B68801A994112F032FB76
:100BF800334912F001FE4149029006F011FA00282B
:100C080005D13F49029806F01FFA002801D0652354
:100C180013E0AD23200029001B01F3181A685B6854
:100C2800801A994112F016FB254912F0E5FD334967
:100C380006F0F6F9002802D06623F3552BE0F055AC
:100C480029E0C823029803991B01F25C3B003A3360
:100C58001A70124BF25C3B003B331A70104BF25C7B
:100C68003B003C331A700122033B1A700023254ACB
:100C780012184B4139003A607B603000022204F0C0
:100C88001FFF0422184BF252633BFF3BF3180299F3
:100C9800039A19605A6019B0F0BDC0467E0C000076
:100CA8007F0C00000E81010833050000FFFF0000E3
:100CB8007D0C00001B060000820C0000C80A000022
:100CC800286B6E4E00004040598207B0DFE0C23406
:100CD8003767D9B85A8E863C6A92E43E00007A4457
:100CE800170600007A0C0000220C0000260C0000F9
:100CF80000001C4000002440830C000000007042EB
:100D080000007043C00E1602F0B51E00AC238BB075
:100D18001B010491C3180021050000201624186047
:100D2800596002AB0592E41808AB0093109A2300AF
:100D38000599049804F058FF0023E356002B2CD1A2
:100D4800162402ABE4180023E356002B25D1059B9B
:100D5800089A083B934220D9172709AB029302ABA4
:100D6800FF180197109B0094320008A9049804F01A
:100D7800B0FB0023E356002B0FD13978FE2905D1AB
:100D8800099A3100280004F0A3FF04E0099B32000F
:100D9800280000F047FA2070D2E71623002002AAA4
:100DA8009B1818560BB0F0BDF0B516240E008BB08A
:100DB8001D0002AB0492E41808AB05900093109A4A
:100DC80023000499300004F00FFF0023E356002BA2
:100DD8002BD1162402ABE4180023E356002B24D1B0
:100DE800049B089A083B93421FD9172709AB029323
:100DF80002ABFF180197109B00942A0008A9300045
:100E080004F067FB0023E356002B0ED13978FE2946
:100E180004D10999280005F029F804E0099B2A0063
:100E2800059800F0FFFE2070D3E71623002002AAE1
:100E38009B1818560BB0F0BDF0B591B00492C422BF
:100E480005930023169C1201009023700D00811851
:100E5800262206A80EF044FA049B002B1FD02B79FB
:100E6800013B012B1BD80021286806F0D3F8002885
:100E780015D006AAA14B12889A4203D006AA528816
:100E88009A4209D19E4B009AD356002B05D10122D4
:100E98009C4B0099CA540DE10B2323700AE10023EF
:100EA800994A00998B54049A9A4202D10C332370C0
:100EB80090E0029303932B79013BDBB2192B00D905
:100EC8007DE0924901221941114278D09A401300DD
:100ED800039A1A4201D0F32372E0039A2E681A4348
:100EE8000021301C039206F095F8F62300280DD156
:100EF8008749301C06F08EF8002845D18549301CFA
:100F080006F0A2F8002800D1F0E0F22323700021B7
:100F1800301C06F099F8002836D07D49301C06F0C0
:100F28007FF8002830D0311C7B4812F065FC0FF0A8
:100F380093F812F01DF9002683B20193774A2B79B2
:100F4800D318013B1B78764AF3189B18009A5B006C
:100F58009F5A380014F072FF724A734B14F0ECF881
:100F680004F09CFF12F01CF980B23B1A019A9BB264
:100F78009A4203D33F18BFB2BA4210D91336722E21
:100F8800DCD1F42323700AE00021301C012706F08D
:100F980041F8002800D000277F42BBB2019300230C
:100FA800E356002B0DD169465C4A2B798988D31802
:100FB800013B1B7806AA013B5B00995201E00A231A
:100FC8002370029B083501330293029A049B9342D3
:100FD80000DD70E723787F2B0BD806A9009804F072
:100FE800EFF8002800D02070012523782E007F2BF1
:100FF8001AD9059B1B78072B1CD90127002626E048
:10100800464B06A99B5C5A1E52008A5A47495B18F0
:1010180000995B005B5A934203D0E9B2009804F050
:101028008CFA01351B2DE4D0384B6A1E134133422C
:10103800F7D0E5E7F12330E7344B01222B41134287
:1010480018D101351A2DF7D10137192F33D00122C4
:101058007B1E9A4013000192354A1342F4D0731C48
:10106800DEB2741E179BE4001C19294B27712360FC
:101078000025E1E72F4AAB00D358019A1342E0D08C
:1010880023682349181C029305F0C4FF002816D0D2
:10109800224B264A5B5D9B18009A5B00985A264BA8
:1010A80098420CD013F07AF8011C1B4812F0A4FBEC
:1010B8002060C6E70026059B1E7011B0F0BD174BD7
:1010C8001A4A5B5D9B18009A5B00985A13F066F801
:1010D800011C114812F090FB0390011C029805F0C6
:1010E8009FFF0028ADD0039B2360AAE71349301C5B
:1010F80005F096FF002800D109E706E730750000E3
:10110800830C0000820C0000B30C0000EF79F2039E
:1011180000FF7F47000020410000C842908101087D
:101128008B0500007B14AE47E17A843F1F06000060
:101138000F20E00028810108FFFF00000E74DA3A52
:10114800F8B50E00040019001000104B013E9B5D1D
:101158000F4A5D1E9A182733FF33069FDB00920063
:10116800E31817511860596007980EF075FFA4230B
:1011780065191B01ED1811F0FBFF0123B340054A67
:101188002870A1580B43A350F8BDC04690810108B0
:101198007B020000540A0000194BF7B54D1E5C5D38
:1011A800184B64000419E25A174B06009A4201D101
:1011B800002024E0154B6A00C3580193144BD35EFA
:1011C800019A1A409342F3D1124BAA00D258124BFB
:1011D800C35813409A42EBD1104F114BE05BE15AD0
:1011E800013080B205F0C6FE89B2E1530029DFD193
:1011F80001200300AB40019A1343044AB350FEBDDB
:101208002C8001085A0A0000FFFF0000580A00005D
:1012180038800108508001083C0A0000AC0A000030
:101228009E0A000010B504000800013811001A00D9
:101238000A282DD805F004FE0A15062C0F2C2C2C94
:101248001A202600200002F085FA23E020006830EA
:1012580001F010FD1EE02000C130FF3003F0E6F978
:1012680018E020002C3002F0D9FE13E0200059309D
:10127800FF3003F065F80DE02000F930FF3002F090
:10128800A0FB07E084239B00E01801F011F801E0BF
:101298006420404210BDF0B5A9B00B912121002374
:1012A800222700250C9206AA5218137006AABF1806
:1012B800B54A0EAE83501C3904000F951095119550
:1012C800229523952495259526952795129513956E
:1012D80033703B70FFF760FF0A9500286AD00B98BF
:1012E80012F05CFFA94B011CE05805F093FE0028A2
:1012F80060D091231B01E3181A685B680892099370
:1013080013AB02932000212306AA9B18C130039730
:1013180001930096089A099BFF3003F0AEF99C4BA5
:101328003078DD7A9B4E6B1E0D939B4BEF1812F0B5
:1013380083FF089A099B2735FF35ED00BF00651923
:1013480038512A606B600A980EF086FE0D9BE518EE
:10135800A4231B01ED1811F00BFF80232870A2595C
:101368001B0113432122A351894B1D7B6B1E0D9337
:10137800894BEF1806AB9B18187812F05DFF089A96
:10138800099B2735FF35ED006519BF0038512A60E4
:101398006B600A980EF060FE0D9BE518A4231B01F4
:1013A800ED1811F0E5FE80232870A2595B01134364
:1013B800A35104E00122794B524208920993032178
:1013C8002000FFF7E9FE002818D00B9812F0E6FE7F
:1013D8006E4B011CE05805F01DFE00280ED011AB25
:1013E800029310AB01930FAB00936D4A6D4B6E499E
:1013F800E358A2586158200002F0C8F901212000E2
:10140800FFF7CAFE002839D00B9812F0C7FE5F4BD1
:10141800011CE05805F0FEFD00282FD0260012AB75
:10142800069322AB0593614B0021E3586836049379
:101438005F4B0125E05805F0EDFD002800D00025A0
:10144800222306AAEDB203959B181B780F990293E5
:1014580021239B181B78109A01930EAB1B78300040
:101468000093119B01F04CFC0A9B12210193129BE3
:1014780020000093089A099BFFF762FE02212000D2
:10148800FFF78AFE00284CD00B9812F087FE3F4BDE
:10149800011CE05805F0BEFD002842D020001CAB1E
:1014A800049318AD1AAB16AE14AF039322AA139B7C
:1014B80012992C3002950196009702F0C3FB7B68C5
:1014C80001210193149B20000093089A099BFFF7C0
:1014D80037FE736802210193169B20000093089A37
:1014E800099BFFF72DFE6B6803210193189B2000D1
:1014F8000093089A099BFFF723FE1B9B0421019385
:101508001A9B20000093089A099BFFF719FE1D9B60
:10151800152101931C9B20000093089A099BFFF753
:101528000FFE09212000FFF737FE002844D00B9852
:1015380012F034FE154B011CE05805F06BFD002835
:101548003AD01C4B2000E3181E685F689E231B01DD
:10155800E3581349039323006A331B8859300293D5
:101568006158089A099B00960197FF3002F01FFF07
:101578000A9B051C0193009032003B000E212000BD
:10158800FFF7DEFD19E0C046580A0000EC0900002C
:1015980090810108540A00007B020000FFFFFF7FD2
:1015A800D8090000D4090000DC090000E80900009F
:1015B800E40900000809000000250A212000FFF7BF
:1015C800EBFD002821D00B9812F0E8FDAA4B011C76
:1015D800E05805F01FFD002817D02000A74BA849A8
:1015E800E3181E685F68A74BF930E3582A1C615856
:1015F800FF3002F002FA0A9B0F900193009032002C
:101608003B000F212000FFF79BFD0B212000FFF777
:10161800C3FD9D4D002800D1ABE091231B01E318C9
:101628001E685F68232306AA9B1804931EAB0393C6
:101638009D2384201B01E3588F4A0293914B9349C1
:10164800E358800001938E4B6158E358A2580093E9
:1016580020180C9B00F0B6FE0C980138C0B212F0AE
:101668009DFD854B011CE05805F0D4FC002800D1F5
:101678007FE0874BE35AAB421BD0232206AB9B1873
:101688001978844B844A5B7D1E989A1892001051F1
:101698001A002732FF32D200A218166057607F4A1C
:1016A800E3189B18197080237D4A9B03A1580B43AC
:1016B800A3507C4BE35AAB421BD0232306AA9B18AA
:1016C8001978744B744A9B7D1F989A189200105190
:1016D8001A002732FF32D200A218166057606F4AEC
:1016E800E3189B18197080236D4ADB03A1580B433C
:1016F800A3506D4BE35AAB421BD0232306AA9B1879
:101708001978644B644ADB7D20989A18920010512E
:101718001A002732FF32D200A218166057605F4ABB
:10172800E3189B18197080235D4A1B04A1580B43CA
:10173800A3505E4BE35AAB421BD0232306AA9B1847
:101748001978544B544A1B7E21989A1892001051CC
:101758001A002732FF32D200A218166057604F4A8B
:10176800E3189B18197080234D4A5B04A1580B435A
:10177800A350484E4E4A73794E4F9B185B00E318AE
:101788005B88AB420FD0E3595B070CD53B4B0A99FA
:10179800E3181A685B680191394920006158009183
:1017A8000621FFF7CDFCB379414A9B185B00E3188B
:1017B8005B88AB4210D0E359DB070DD53E4B0A9945
:1017C800E3181A685B6801919D210901615820009E
:1017D80000910721FFF7B4FCF379354A9B185B00A9
:1017E800E3185B88AB4210D0E3599B070DD59023D3
:1017F8000A991B01E3181A685B68019121492000C6
:10180800615800910821FFF79BFC337A284A9B18FE
:101818005B00E3185B88AB4210D0E3591B070DD57A
:1018280091230A991B01E3181A685B68019117490B
:101838002000615800910921FFF782FC737E1C4A41
:101848009B185B00E3185B88AB4210D0E3591B027E
:101858000DD593230A991B01E3181A685B68019157
:1018680005492000615800911A21FFF769FC0023FF
:10187800E35129B0F0BDC046EC090000080900009A
:10188800D8090000D4090000FFFF0000DC090000AF
:10189800960A0000908101087B0200003F0A0000C0
:1018A800540A0000980A00009A0A00009C0A0000E6
:1018B8003B0500003C0A0000F808000010B50400D1
:1018C8000800110001381A0002AB1B780A282DD82D
:1018D80005F0B6FA0A15062C0F2C2C2C1A20260017
:1018E800200001F0A5FF22E02000683001F0E4FCB0
:1018F8001DE02000C130FF3002F064FF17E0200037
:101908002C3002F089FA12E020005930FF3002F042
:10191800CDFD0CE02000F930FF3002F0ADF806E014
:1019280084208000201800F0E1FE00E0002010BDB7
:1019380010B504000800110001381A0002AB1B782A
:101948000A282DD805F07CFA0A15062C0F2C2C2C09
:101958001A202600200001F09AFF22E020006830BB
:1019680001F0FDFC1DE02000C130FF3002F06CFFEB
:1019780017E020002C3002F0A8FA12E020005930BD
:10198800FF3002F0E3FD0CE02000F930FF3002F0F8
:10199800A2F806E084208000201800F04FFF00E045
:1019A800002010BD30B5084C04590C609321090182
:1019B80041180C684D6814605560044A8258120238
:1019C800D20F1A7030BDC046EC0900003C0A000076
:1019D80070B50F4C0139645C0E4D6519AD002D587A
:1019E800156022002732FF32D20082181568566827
:1019F8001D605E60084B0419E4182378049A13707C
:101A080001238B40054A81589943815070BDC046D7
:101A1800908101087B0200003F0A0000540A000080
:101A2800F0B50025012685B00290344B2B41334296
:101A38005FD0334B029AEB5C5B00D3180393039A95
:101A4800304BD35A304A0193934252D000231C00A2
:101A5800680032009A4029490A4211D02B49415E58
:101A68000A420DD0264A2A499A5C52180299520015
:101A78008A18928824498A4202D0A24200DD1400C2
:101A880001330B2BE5D1234B00229C46224FA800A3
:101A98003300934021490B4210D0C15919420DD04F
:101AA80063461F499B5C5B1802995B00CB185B88F7
:101AB80015498B4202D0A34200DD1C000132182ACE
:101AC800E6D1002C15D02100019805F0CDF980B29F
:101AD80003006343019AD31A9BB2002B06D0620815
:101AE80034401419A34201DB013080B20D4B039A34
:101AF800D05201350B2D98D105B0F0BD1707000065
:101B08002C8001085A0A0000FFFF000038800108F5
:101B18002B0500000E810108508001080F20E0000D
:101B2800330500009E0A0000AA231B01C2180F4BB0
:101B3800F0B50125C4180127130000266D421900CD
:101B480044391F80DE810D80012102334942A342BE
:101B5800F5D1074B074CC318001919800233984276
:101B6800FBD1018002308242FBD1F0BDAE0A0000F9
:101B78006A0A00007A0A0000F8B5040001F0DEFDE8
:101B88002000C130FF3002F02FFD20002C3002F081
:101B98002BF82000683001F07DFC20005930FF3020
:101BA80002F086FB2000F9300A21FF3001F0FEFE2A
:101BB80084239B00E01800F0FAFA9D231B01E51826
:101BC800134B0026E118134B0022E018002340C5F0
:101BD8000CC100278142FAD10F4D0023A4216519B9
:101BE800AC460D4A0901A3504C3AA21861180025C9
:101BF800002680C260C00B7001316245F7D1074BE7
:101C08002000E550064BE550FFF78EFF2000F8BD99
:101C1800F8080000380900003C0A0000540A0000D7
:101C2800580A000010B504000800013811001A0015
:101C38000A282DD805F004F90A15062C0F2C2C2C8F
:101C48001A202600200001F051FE23E02000683011
:101C580001F004FD1EE02000C130FF3002F084FED8
:101C680018E020002C3002F068F913E02000593009
:101C7800FF3002F09CFC0DE02000F930FF3001F04D
:101C880058FF07E084239B00E01800F02BFE01E0DA
:101C98006420404210BDF0B505AC40CC013927782E
:101CA8000E4C645C651EAC468F25E4002D010419BA
:101CB80064192568954204D165689D4201D1002FB9
:101CC8000BD09D25AD006544AD002E500CC40123FA
:101CD8008B40034A81580B438350F0BD0E810108A5
:101CE8003C0A00000300481EC2B210B50A2A09D8EF
:101CF800164A511801390A781549521852009A188B
:101D0800918800E0134909281FD805F099F80914AB
:101D1800051E0E1E1E1E1E19180001F003FE14E0FB
:101D28006833180001F038FC0FE0C133FF331800A6
:101D380002F0E1FD09E02C33180002F01EF904E07E
:101D4800F933FF33180001F00FFF10BD2C80010894
:101D58002B050000FFFF0000F7B51E4B013901906D
:101D68005B5C1D481D4D1B1801985B00C3185A8009
:101D78001B4B00209C464E000123644683402342AF
:101D88000CD0745F234209D0164B019CC35C5B00E6
:101D9800E318154C1F5B974200D91A5301300B28E2
:101DA800EAD10020114E124F8900012383403342AB
:101DB8000CD0CC591C4209D00E4B019C1B5C5B001B
:101DC800E3180D4C1D5B954200D91A5301301828B1
:101DD800EBD1F7BD908101083B050000AA810108FD
:101DE800170700002C8001085A0A00000F20E000A5
:101DF800288101080E810108680A000030B5084CE6
:101E080004590C609121090141180C684D6814604F
:101E18005560044A82581207D20F1A7030BDC04666
:101E2800DC0900003C0A00000300481E10B50A281F
:101E380009D8174A511801390A7816495218520018
:101E48009A18918800E0144909281FD804F0F8FF6F
:101E58000914051E0E1E1E1E1E19180001F062FD33
:101E680014E06833180001F097FB0FE0C133FF332B
:101E7800180002F040FD09E02C33180002F07DF84C
:101E880004E0F933FF33180001F06EFE10BDC046C0
:101E98002C8001082B050000FFFF000030B5084C1E
:101EA80004590C609221090141180C684D681460AE
:101EB8005560044A82589202D20F1A7030BDC0464B
:101EC800E40900003C0A000010B50400FFF754FEC6
:101ED800200003F09DFD200003F064FB200010BDEE
:101EE800F0B506000F00002485B002920AAA127805
:101EF8009B0003920193019B9C4215D00025039BF4
:101F08009D420FDA28226A4302983B19A9004158DA
:101F1800985811F039FE011C305911F0CFFA0135EB
:101F28003051ECE70434E6E705B0F0BDF0B50F003A
:101F38000400002585B002930AAB1B780192039335
:101F4800029B9D4215DA0026039B9E420EDAB200E0
:101F5800531901999B008958D85911F015FE011C95
:101F6800206811F0ABFA01362060EDE70135043442
:101F7800E6E705B0F0BDF0B58DB006000D0012988B
:101F88001399170013F0F4FE301839300678149CB2
:101F9800012E14D0002E09D0022E66D12900282245
:101FA80002A80DF09DF90025029E29E0A9590020FC
:101FB8000DF06AFFA0510436282EF7D15AE02822E6
:101FC800290020000DF08CF90026B74252DDC0210F
:101FD800B300E858090611F0D7FD0EF0D5F8FE2138
:101FE800890511F06BFA011C8020C00511F004FC72
:101FF800FE21890511F0EEFEB300E0500136E4E75A
:1020080002AAAB185B68311C181C019305F01CF878
:10201800002800D0019E0435242DF1D10025AF42BF
:102028000CDDAA0002AB9858311C11F0D3FE0EF05B
:10203800ABF8AA0002AB98500135F0E70025029EE4
:1020480002AAAB18301C596811F038FA0435061C7E
:10205800242DF5D1002502AB5859311C11F0CCFBC9
:1020680060510435282DF6D104E0282229002000EB
:102078000DF036F90DB0F0BDF0B53C301C0003781A
:1020880087B00D001700012B18D0002B02D0022BAF
:1020980034D086E0096800200DF0F6FE20606968FB
:1020A80000200DF0F1FE6060A96800200DF0ECFE44
:1020B800A060E96800200DF0E7FE70E01022200023
:1020C8000DF00EF90026B7426FDDC021B300E858C5
:1020D800090611F059FD0EF057F8FE21890511F097
:1020E800EDF9011C8020C00511F086FBFE21890551
:1020F80011F070FEB300E0500136E4E7102202A8A8
:102108000DF0EEF8029D039E291C301C04F09CFF84
:10211800002800D0351C049E291C301C04F094FFB4
:10212800002800D0351C059E291C301C04F08CFFAB
:10213800002800D0351C0026B7420CDDB20002ABE7
:102148009858291C11F046FE0EF01EF8B20002AB9A
:1021580098500136F0E7049B029F039E0093059B6D
:10216800311C381C019311F0A9F9009911F0A6F956
:10217800019911F0A3F9051C011C381C11F03CFB56
:10218800291C2060301C11F037FB291C6060009866
:1021980011F032FB291CA060019811F02DFBE060C2
:1021A80003E0102220000DF09BF807B0F0BD0B23D0
:1021B80003700023374A30B58354374A01008354EB
:1021C800364A00248354020001333A3213705370A4
:1021D800030002223C331A7002006831403210C2F8
:1021E80000239142FBD10400903408C100228C42A4
:1021F800FBD10100943122600A604A608A60AA21FA
:102208000200FE258900A0324118AD05FE2420C237
:10221800A4059142FAD18722D200821810C18A42BD
:10222800FCD19B21C900411810C29142FCD19B21CD
:102238000A22C90042541A4942540421194A8154B5
:10224800194A81186D32FF32821808C18A42FCD1BE
:102258001649411808C29142FCD1D622D2008218F0
:1022680008C18A42FCD10B49411810C29142FCD1E5
:102278000400011D2C3408C100228C42FBD103004C
:1022880000213833197001315970C2620263426308
:1022980030BDC046E4060000E5060000E606000082
:1022A800D9040000DA040000DC0400007C06000009
:1022B800F0B587B004AB0400007800930F2305AE97
:1022C8006B4401960D0002F0A3FB6B46DB7B0127F4
:1022D8005BB2002B67D1F8B201380D285AD804F048
:1022E800AFFD070A0D141B222A323A4143454D53CC
:1022F80022003A322AE02200403201E0220068320D
:102308003100280004F030F84AE022003100903211
:10231800280004F013F943E022003100A03228001D
:1023280004F052FA3CE0AA239B00E218310028008E
:1023380004F090FA34E08723DB00E218310028002B
:1023480004F0C4FA2CE09B23DB00E21831002800DB
:1023580004F0F8F924E0164B3100E218280004F0E4
:10236800EAFA1DE0C92302E0124B01E0D623DB00A4
:10237800E2183100280004F025FB11E031002800A4
:1023880003F098FF0C4B0AE03100280003F092FF9D
:102398000A4B04E03100280003F08CFF084BE0549E
:1023A8000137102F97D16B460F20185607B0F0BD94
:1023B800DC0400007C060000E4060000E5060000DE
:1023C800E6060000F0B5002600270400BBB006931F
:1023D800439B101C1E605E609E60DE60449B0791FC
:1023E8001F700DF039FE10F0C3FE230039331A7840
:1023F8000130C5B20596BA421DD0012D00D053E177
:102408001F70013B1F70A94BE35CBB4201D0409B8E
:10241800E362A74BE35C002B01D0419B2363A54BF0
:10242800E35C002B07D0429B6363230039331B789E
:10243800002B00D038E126003836069B3078591C2E
:102448000130C0B2C9B204F095FDC9B28D4200D0C6
:1024580022E1079AAB0035701A51069B9D4200D0C5
:1024680022E10023059920AA2DAE995099510433F1
:10247800342BF7D1251D2822290030000CF030FF1D
:10248800236BB362E36AF362636B3363C923DB00D4
:10249800E01802F0B1FD002864D000230022089360
:1024A8000023169217930022834B16A90993834B96
:1024B80008A8189219930CAA01F006FE00272868AC
:1024C8000DF0B8FE7E4911F05FFB7E4911F082FCE9
:1024D8007D4B2DAEEB18196811F07CFCB851043710
:1024E8000435282FEBD17949206B11F04DFBCE2311
:1024F800DB00E15811F06EFC7549B062E06A11F03A
:1025080043FB744910F0DAFF734BE15811F062FC99
:102518000C99F062606B11F037FB0D9910F0CEFF4B
:10252800CF23DB00E15811F055FC3063002600256D
:10253800002707236B43694A9B199B182DAAA958A2
:10254800E05811F021FB011C381C10F0B7FF0435CE
:10255800071C342DEDD120ABF05004361C2EE6D1EB
:10256800072722E005005E4BE618776B0021381C30
:1025780004F050FD2DAB00280BD15859316811F0EB
:1025880029FC391C11F038F9702204AB9B185851FA
:1025980006E070225B59069304AB9B18069A5A51C1
:1025A80004350436342DE0D10D279B232100DB00B0
:1025B800E35C0CAD06934B4B2822E35C4031079358
:1025C800494B2800E65C0CF08BFE21000097069B27
:1025D80020AAA0312800FFF783FC0022374B16AF52
:1025E800009201930297069A29002000FFF7C3FC86
:1025F800079B002B25D02100282268312DA80CF03C
:102608006FFEAA21069B890000933A00079B611878
:102618002DA8FFF765FC80230022DB0500920193BB
:102628002DA9079A20000295FFF7A5FC210010228A
:10263800903108A80CF054FE079B2A000093330041
:1026480009E021001022903108A80CF049FE069BF1
:102658003A00009333008721C900611808A8FFF7E2
:1026680065FC439B320008A92000FFF705FD032302
:10267800449A13702200231D2C32059902C39342F9
:10268800FBD12300002238331A7001325A70059B9F
:10269800E3622363636307E02200231D2C3205995C
:1026A80002C39342FBD1ECE73BB0F0BDE606000065
:1026B800E4060000E50600000024F4490000F03FAD
:1026C80065D1993D937EC53E440600000AD7233C58
:1026D8009076AC3B6D28AF3E74060000DC04000029
:1026E8007C060000D9040000DA040000F0B587B0C9
:1026F800160002AAD71D0F2205003A7000783A008A
:102708000C0002F0A8F93B78012705900193019A83
:102718007B1E9A4276DDF8B201380E2870D804F094
:102728008FFB0810161E262E37404951565B6466EB
:102738006800280005AB320021003A3003F0A5FFFD
:102748005EE0280005AB32002100403004E028009C
:102758003200210005AB683003F03CFE50E0280051
:1027680005AB32002100903003F0CEFF48E028008E
:1027780005AB32002100A03003F0F8FF40E0AA20AA
:10278800800005AB32002100281804F037F837E044
:102798008720C00005AB32002100281804F073F828
:1027A8002EE09B20C00005AB32002100281804F061
:1027B800A3F825E01C4805AB32002100281804F0D6
:1027C800D2F81DE005AB32002100C92008E005ABB6
:1027D80032002100154804E032002100D62005AB64
:1027E800C000281804F003F90AE0114B02E0114B6D
:1027F80000E0114BE85C320005AB210003F06CFDF2
:10280800013784E70A2102ABC91804AD059B0222EF
:1028180028000B800CF064FD2B78059823706B78EA
:10282800637007B0F0BDC046DC0400007C06000001
:10283800E4060000E5060000E6060000F0B587B0F3
:10284800160002AAD71D062205003A7000783A0041
:102858000C0002F000F93B78012705900193019ADA
:102868007B1E9A422DDDF8B20138052827D804F0DE
:10287800E7FA030A0D161B20281D05AB32002100BC
:1028880003F0A8FD1BE02B00383301E02B0039339F
:102898001878320005AB210003F01EFD0FE005ABF0
:1028A80032002100E86A08E005AB32002100286BFD
:1028B80003E032002100686B05AB03F0D7FC013759
:1028C800CDE70A2102ABC91804AD059B02222800F6
:1028D8000B800CF005FD2B78059823706B786370DE
:1028E80007B0F0BDF0B587B004AB040000780093E2
:1028F8000F2305AE6B4401960D0002F089F86B4674
:10290800DB7B01275BB2002B31D1F8B201380428F8
:1029180025D804F095FA030910181E00221D31006D
:10292800280003F021FD1FE03100280003F0C2FC5D
:102938002300383305E03100280003F0BBFC2300F6
:102948003933187010E03100280003F079FCE06298
:102958000AE03100280003F073FC206304E0310032
:10296800280003F06DFC60630137072FCDD16B465B
:102978000F20185607B0F0BDF8B59B00C418E768DB
:102988000D1C381C0021161C04F044FB002807D13C
:10299800391C606811F01EFA291C0DF075FA051C27
:1029A800311C606811F016FA00210DF06DFAE1682B
:1029B800071C301C11F00EFA00210DF065FA011CFD
:1029C800381C0DF077FA011C10F078FD291C10F066
:1029D80013FFFE2189050DF06DFAF8BDF0B589B039
:1029E80005930EAB1B78029100930FAB1B78070081
:1029F800079310AB1B78654940680693150011F0E2
:102A0800C3F8059B0190002B06D1009B03339B0064
:102A1800D95910F053FD0FE0802212069446029B0C
:102A28000198634402932B689B182B60009B013329
:102A38009B00D95911F0CEF929680390029811F03A
:102A4800C9F9041C788811F0F7FB514910F0D4FE3D
:102A5800009B04909B00FE184E49F06904F0DAFAD6
:102A6800002813D00299706811F0B4F900210DF014
:102A78000BFA011CFE20800511F0ACF9011C11F0C5
:102A880083F8FD21890511F07FF801E0FE2080051B
:102A9800414911F079F8414910F010FD019911F000
:102AA80073F8011C019810F009FD00210190201C09
:102AB80004F0CAFA002825D0009B012B04D1079BFB
:102AC8000B339B00DE5900E0354E069B002B06D1E8
:102AD8000199201C04F0B8FA002800D0304E314982
:102AE800786811F051F8311C10F086FE049911F045
:102AF8004BF8061C011C201C04F0A6FA00282FD055
:102B0800341C2DE0069B002B13D1201C0DF06CF912
:102B1800011C019804F084FA00280AD0009B012BBC
:102B280007D13B00D8331B49186810F065FE011C1B
:102B380002E03300D4331968802212069446049BBD
:102B48006344180010F058FE0DF01EFB011CFE2017
:102B5800800511F03FF9011C201C11F015F8041C28
:102B68002968201C10F0AAFC041C011C039804F01E
:102B78006BFA002800D0039C059B002B02D0802311
:102B88001B06E4182C6009B0F0BDC046C178C63DEC
:102B98000000C84200004040CDCC4C3ECDCCCC3DDE
:102BA8000000E144CBBECB3EF0B585B01F1C0AAB9C
:102BB8001D7804006B1EAD0045190E1CE8692A49F2
:102BC8000392029304F026FA00280DD0FE20391C47
:102BD800800511F0FFF8011C10F0D6FFFD218905D2
:102BE80010F0D2FF071C01E0FE27BF05EB686868FC
:102BF800191C019311F0EEF81C49051C381C10F043
:102C0800C3FF1B4910F05AFC311C10F0BDFF311CEA
:102C180010F054FC011C281C04F002FA029BE51871
:102C2800002805D10021019804F0F4F9002805D006
:102C3800FE20E034237880052B7712E0039B002BDD
:102C480001D0287709E02B7FFF2B01D001332B77A8
:102C5800E0342A7F23789A4202D28020C00500E01F
:102C6800014805B0F0BDC04600004040CDCC4C3E08
:102C7800CDCCCC3DF0B587B004AB04000078009310
:102C88000F2305AE6B4401960D0001F0C1FE6B46A3
:102C9800DB7B01275BB2002B2DD1F8B20138220073
:102CA800052820D804F0CCF80305070D1319D832ED
:102CB8001AE0D03218E03C323100280003F03EFC24
:102CC80016E0E2323100280003F061FC10E0CC325B
:102CD8003100280003F08DFC0AE0CE3231002800D4
:102CE80003F099FC04E0E8323100280003F0FFF912
:102CF8000137082FD1D16B460F20185607B0F0BD09
:102D0800F0B597B00A931CAB1B780F910C931DABD1
:102D18001B78CA490B931EAB1B78060008931FABA0
:102D28001B78406805920D9310F02EFFC44904905B
:102D3800059810F029FFC349041C059810F0BEFB44
:102D4800011C201C10F058FD229F0DF01DFABE49F1
:102D5800041C0A9810F018FFBC4910F04DFD211C06
:102D680010F012FFBA49041C059810F0A7FB011CCB
:102D7800201C10F041FDB74910F006FFB649041CAD
:102D880004F062F9002804D0201C0DF027FA0990FD
:102D980002E0C0231B0609939622738852009342CF
:102DA8002CD014D8642B3CD13100B36C0C2207937F
:102DB800B36D983113A806930CF092FA31000822EB
:102DC800A43111A80CF08CFA3300B8333BE0E122AF
:102DD800D200934225D13100336C0C220793336D16
:102DE800703113A806930CF07BFA310008227C316D
:102DF80011A80CF075FA3300B03324E03100736C7D
:102E08000C220793736D843113A806930CF068FAAB
:102E180031000822903111A80CF062FA3300B43363
:102E280011E03100F36B0C220793F36C5C3113A8AB
:102E380006930CF055FA31000822683111A80CF0FD
:102E48004FFA3300AC331C687D49201C1D6910F013
:102E58009BFE7C490E90201C10F030FB011C0E9844
:102E680010F0CAFC0DF090F977490E90281C10F06C
:102E78008BFE764910F0C0FC0E9910F085FE74495F
:102E8800051C201C10F01AFB011C281C10F0B4FCB7
:102E9800704910F079FE0DF0A1F90021051CB06809
:102EA80004F0B8F8002832D1291C099810F092FFD4
:102EB800011C051C10F068FE139910F065FE1499AA
:102EC8000E90281C10F060FE011C0E9810F0F6FA07
:102ED800159910F0F3FA211C051C059810F07AFFDB
:102EE8005A4910F089FC119910F04EFE129910F011
:102EF800E5FA011C281C10F047FEFF2189050CF09B
:102F0800D9FFFC2189050CF0BFFF051C01E0FE2557
:102F1800AD050699059810F037FE4C4910F06CFC89
:102F280007990690099810F02FFE011C069810F0DA
:102F3800C5FAB468011C0F9810F04CFF211C10F062
:102F480049FF291C10F020FE211C10F0B7FA386048
:102F5800041CCD20305611F021F9011C059804F00D
:102F680069F8002822D0CC20305611F017F9011C3E
:102F7800059804F073F8002818D03300CF33187878
:102F880011F00CF9011C0A9804F054F800280DD02F
:102F98003300CE33187811F001F9011C0A98012585
:102FA80004F05CF8002800D1051CE8B20B9B002B4C
:102FB8003ED00D9B002B00D0EFE0002800D1A5E00B
:102FC8000021209804F026F8B56A002811D00021C5
:102FD800281C04F01FF8002840D1B08D11F02CF9FE
:102FE800011C281C10F0F6FE011C00200CF04CFF00
:102FF8001CE0209811F0B2F803006F335B00F3185F
:103008000400588811F018F9011C281C10F0E2FE81
:103018003934A4000590A0590DF0B6F8011C0598A4
:1030280010F0EAFB011C281C10F0D4FEB0626DE021
:103038000D9B002B00D0B0E068E0C046C178C63DCB
:10304800C3F58C41B81E73438195C3400000C84244
:103058003393884333B358430AD7233C0021B068DD
:1030680003F0D8FF002800D0B4600021306903F0D5
:10307800D1FF002800D0E8E0089B01240293022336
:103088003200019300943968300000230832FFF7BA
:10309800A5FC0021306903F0BDFF00280AD13200E9
:1030A800089B019402930094230010323968300081
:1030B800FFF794FC0021F06803F0ACFF002801D072
:1030C8003B68F3600021706903F0A4FF002800D07A
:1030D800C9E002243200089B0194029300943968E5
:1030E800300000230C32FFF779FC0021706903F0EF
:1030F80091FF00280AD1089B320002930123009413
:103108000193143239683000FFF768FC3D68B168F4
:10311800281C03F0A3FF0124002807D13169281CCB
:1031280003F088FF002800D10024E4B201232A1C00
:1031380004993000FFF720FC0C9A031C002A00D1E8
:103148009FE00B9A002A00D19BE00122049900928B
:1031580030002200FFF728FD30623D68F168281C26
:1031680003F07CFF0124002800D190E002232A1CF0
:1031780004993000FFF700FC0C9A031C002A00D1C8
:103188008EE00B9A002A00D18AE00222049900926C
:1031980030002200FFF708FD7062B5680021281C86
:1031A80003F038FF002800D03D68F468336A002136
:1031B800201C059303F02EFF002800D03C68219BBB
:1031C80000211D603769381C03F024FF002802D154
:1031D800219B9F6005E00499281C10F0FBFD219BB2
:1031E8009860219B059A5C601A6175690021281C0A
:1031F80003F010FF002802D1219BDD6005E004994F
:10320800201C10F0E7FD219BD8603400219B726AD6
:1032180038345A612378012B48D12549059803F0A1
:10322800F9FE00280DD0089B002B0AD03300D033BC
:103238001B6833633300D4331B6873630023237024
:1032480034E01C4B3363736330E00499B06810F0CA
:10325800C1FD3C68011C201C03F0E2FE002800D1DF
:103268000AE7346108E70499F06810F0B3FD3C6898
:10327800011C201C03F0D4FE002800D129E774614A
:1032880027E73300E0331B780020337764E7716960
:10329800281C03F0CFFE002800D10024E4B265E723
:1032A8003300E0331B780020737775E717B0F0BD63
:1032B800000040400000E144F0B587B0160002AAC3
:1032C800D71D072205003A7000783A000C0001F07B
:1032D800C2FB3B78012705900193019A7B1E9A4215
:1032E8002CDDF8B20138062826D805AB32002100BB
:1032F80003F0A6FD04070A0F14191E002800D83091
:1033080018E02800D03015E028003C3003F095F88C
:1033180012E02800E23003F0C9F80DE02800CC30B4
:1033280003F0ECF808E02800CE3002F069FF03E073
:103338002800E83002F0EFFE0137CEE70A2102ABA1
:10334800C91804AD059B022228000B800BF0C8FFAA
:103358002B78059823706B78637007B0F0BDF0B5D3
:1033680087B0160002AAD71D0D2205003A70007812
:103378003A000C0001F06FFB3B78012705900193A0
:10338800019A7B1E9A4254DDF8B201380C284ED8B7
:1033980003F056FD070D15171E20282E33353C3F28
:1033A8004500280005AB32002100083004E0280061
:1033B8003200210005AB103002F0ADFE37E0288B5B
:1033C80000E0688B05AB3200210002F0FCFE2EE025
:1033D8006888F7E7280005AB320021001C3002F0AE
:1033E8000FFF24E0280005AB320021002030E3E77E
:1033F80005AB32002100A86A05E0A88DE2E732009B
:103408002100686805AB02F031FF10E02B00E033C3
:1034180007E0280005AB320021003030CCE72B0054
:1034280038331878320005AB210002F055FF013718
:10343800A6E70A2102ABC91804AD059B02222800A1
:103448000B800BF04DFF2B78059823706B78637019
:1034580007B0F0BD012300225B4201004380002336
:10346800028342838285E0310232836243600A70BC
:10347800836003610362C3604361436201230449BB
:103488000277016342774163383003707047C04662
:103498000000E144012310B503702E4B2E4AC3638C
:1034A8002E4B826503642E4BFE2243642D4B9205FE
:1034B80083640023011DC36403654365C365036614
:1034C80042668366C266036743678267C3670431DF
:1034D8008A67CB6780310B608B60030094334A6046
:1034E8001A60214A04005A60204A9A60204ADA6029
:1034F800204A1A61204A5A610200204BAC321360FC
:103508001F4A8A62CB620A634A63CA630200C832EE
:103518008B6313601B4B9360D36003001A4AD83344
:103528001A601A4A0C3B1A610A22DA82073A1A838D
:10353800D5321A70833A5A7000229A706432DA705F
:10354800134A1C331A60134A5A60FFF783FF20009E
:1035580010BDC046894100BFCDCCCCBDCDCCCCBEC2
:10356800000040BFE17A94BE52499DBC5F29CB3D23
:1035780076E06C3F9BE67D3FBF0E7C3F0000A0419C
:10358800000020420000614500C0A8474031774C48
:103598000000604017B7D1382A4B70B505000C0001
:1035A80099424ED043888B424BD0962369805B006A
:1035B800994207D0E123DB00994205D0642903D062
:1035C800214E02E0214E00E0214E6421200003F04C
:1035D8004BFC642380B24343E31A9BB2312B01D9DD
:1035E800013080B2A885301C0CF0F8FD0CF0FCFB13
:1035F800184910F001F96860002C14D02100164811
:1036080003F032FC80B202006243134B9B1A9BB258
:10361800002B09D00122610814400C19A34203DBD6
:10362800801880B200E0074810F006FE0CF0B2FEE9
:10363800011C0FF043FF0CF0DBFB0FF099FDE035A8
:10364800287070BDFFFF0000304C463F0AD7233F6B
:103658009A99193F502C633E30750000F0B587B039
:1036680004AB0400007800930F2305AE6B44019669
:103678000D0001F0CDF96B46DB7B01275BB2002B17
:1036880057D1F8B201380B2849D803F0D9FB0609FD
:1036980010161C22292C32383E452200083201E03F
:1036A800220010323100280002F021FD3EE03100F6
:1036B800280002F074FD208338E03100280002F071
:1036C8006EFD608332E03100280002F068FD608002
:1036D8002CE0220031001C32280002F09CFF25E07B
:1036E80022002032DEE73100280002F0A9FDA062A6
:1036F8001CE03100280002F052FDA08516E03100E0
:10370800280002F09DFD606010E03100280002F002
:10371800D1FD2300E03308E022003032C2E7310057
:10372800280002F0C7FD23003833187001370E2F28
:10373800A7D16B460F20185607B0F0BD032310B56C
:1037480004000370043003F023FA200002F0E0FBC9
:10375800200010BDF0B50F2587B06D4404AB05AF50
:1037680004000078009301972B000E0001F050F937
:103778000023EB56002B05D12200390020323000FF
:1037880002F068FC0020285607B0F0BDF0B50D1C0B
:1037980085B004002549281C019202930B9E0C9FBA
:1037A80003F048FC002800D0204D0021206903F0D8
:1037B80031FC002807D0281C0CF010FD019B20616B
:1037C8006361029BA3616368281C03930CF006FDE8
:1037D8002569291C10F0FEFA039910F0D5F9291C67
:1037E8000FF06CFE0A9B186065690198291C10F09F
:1037F800F1FAA16810F0C8F9291C0FF05FFE3060DB
:10380800A5690298291C10F0E5FAE16810F0BCF9E6
:10381800291C0FF053FE0A9B38601B68236133682C
:1038280063613B68A36105B0F0BDC046000020415C
:10383800F0B5012487B0019202AAD61DD471070001
:10384800320000780D0001F006F936780590631E05
:103858009E420BDDE3B2012B06D1380005AB019A7D
:103868002900203002F009FC0134F0E70A2102ABFC
:10387800C91804AC059B022220000B800BF030FD18
:10388800237805982B7063786B7007B0F0BDF0B59E
:10389800012487B0019202AAD61DD4710700320014
:1038A80000780D0001F0D7F836780590631E9E4227
:1038B8000BDDE3B2012B06D1380005AB019A2900D4
:1038C800103002F0DAFB0134F0E70A2102ABC91824
:1038D80004AC059B022220000B800BF001FD23782D
:1038E80005982B7063786B7007B0F0BDF0B50F25A5
:1038F80087B06D4404AB05AF0400007800930197CE
:103908002B000E0001F084F80023EB56002B05D1A4
:10391800220039001032300002F09CFB00202856AB
:1039280007B0F0BDF0B5040085B0080010F084FCC5
:10393800011C1D480FF060FFFC21890510F024F9D7
:10394800FE26011C051C206A0FF056FFB605311C27
:10395800071C03F079FB002801D1019700E00196CC
:10396800FE26291C606A0FF047FFB605311C071CAC
:1039780003F06AFB002801D1029700E00296291C97
:10398800FE25A06A0FF038FFAD05291C061C03F0C0
:103998005BFB002801D1039600E00395201D01A9D7
:1039A80003F08AF805B0F0BD0000C84210B5040065
:1039B8000170043003F0F8F8200002F0BDFA20008E
:1039C80010BDF0B50F2587B06D4404AB05AF0400FA
:1039D8000078009301972B000E0001F019F80023DE
:1039E800EB56002B05D1220039001032300002F0CE
:1039F8007EFB0020285607B0F0BDF7B504000F1C69
:103A0800181C002101921D1C03F014FB002807D18B
:103A18001749281C03F018FB002802D0144D00E0B9
:103A2800144D0021A06803F0F5FA002800D0A76023
:103A3800A668381C311C10F0CDF9616810F0A4F8A4
:103A4800311C0FF03BFD2169061CA060281C10F0FA
:103A58009BF861690FF032FD291C0FF02FFD0199C9
:103A6800021C301C02F074FA01490CF023FAFEBD66
:103A78000000C84217B7D138F0B5012487B00192C9
:103A880002AAD61DD4710700320000780D0000F09C
:103A9800E2FF36780590631E9E420BDDE3B2012BF0
:103AA80006D1380005AB019A2900103002F085FDD7
:103AB8000134F0E70A2102ABC91804AC059B0222C5
:103AC80020000B800BF00CFC237805982B70637892
:103AD8006B7007B0F0BDF0B5012487B0019202AA5F
:103AE800D61DD4710700320000780D0000F0B3FF36
:103AF80036780590631E9E420ADDE3B2012B05D19C
:103B080005AB019A2900B86802F0B0FB0134F1E76F
:103B18000A2102ABC91804AC059B022220000B80C5
:103B28000BF0DEFB237805982B7063786B7007B079
:103B3800F0BDF0B50F2487B06C4404AB05AF0500A9
:103B480000780093019723000E0000F061FF002326
:103B5800E356002B04D13900300002F071FBA86055
:103B68000020205607B0F0BDF7B50500080010F09A
:103B780063FB011C19480FF03FFEFC21890510F07A
:103B880003F8FE27011CBF0515480FF035FE391C48
:103B98000CF090F91349061C0FF0F6FF0CF080FAB0
:103BA800011C0FF0F1FF041C011C0FF0EDFF211C9C
:103BB8000FF084FC0CF0EEFB391C0190301C03F074
:103BC80029FA002808D1211C019810F003F9011CDA
:103BD8000FF074FC686000E06F60F7BD0000C84239
:103BE80099D4503CDB0FC93F81220223D2050261E0
:103BF800104A03704261C8220023520002830E4A11
:103C08000371C261FC22F533FF3343805F3BFF3B06
:103C1800C380643B0372002392050262FA22C360E8
:103C28008362C362054B92000363054B828443633E
:103C3800836370470000204100007041EC518542C9
:103C480000004842F0B5166885B00700301C140023
:103C58000193029110F0BEF80390788810F0ECFA06
:103C68000090387A10F0E8FAA168051C301C10F0B2
:103C7800B1F8011C03980FF0BFFD061CF88810F07E
:103C8800DBFA011C301C0FF07FFF291C0FF016FC1B
:103C9800011C281C0CF0F8F8011C00980CF00AF91B
:103CA8000090387A10F0C8FAF968051C03980FF0EC
:103CB8006BFF291C0FF002FC011C281C0CF0E4F817
:103CC800FE21051C8905019803F0AAF9002835D0C2
:103CD8000199081C0FF058FF7E6B0190311C009869
:103CE80003F0B2F9002810D0009801990FF04CFFAA
:103CF8000090FE200199800510F06CF8311C0FF03F
:103D080043FF00990FF0DAFB0090BE6B281C311CB2
:103D180003F09AF9002814D00199281C0FF034FFF9
:103D2800051CFE200199800510F054F8311C0FF095
:103D38002BFF291C0FF0C2FB051C02E0009BBD6392
:103D48007B630A9B009A281C1A6022695A600B9BA5
:103D58001D6022695A60396B03F06CF93B8B009344
:103D680000280CD0180010F067FA3969061C281CC6
:103D78000FF00AFF011C301C0FF0A0FB03E079696B
:103D8800281C0FF001FF061C009810F055FA311C92
:103D98000CF07AF80C9B186022695A60B88C10F005
:103DA8004BFAB96A061C281C0FF0EEFEF96A0FF0F0
:103DB80085FB011C15480CF095FA011C14480CF001
:103DC80063F8011C301C0CF075F80D9B0299186003
:103DD80022695A606568281C0FF0FCFFE168061C20
:103DE800281C0FF0F7FF011C301C0FF005FD0949D6
:103DF8000FF0CAFE07490CF05DF80E9B1860636966
:103E08000093009A0E9B5A6005B0F0BD0000204157
:103E1800CDCCCC3D0000C842F0B587B0160002AA50
:103E2800D71D082205003A7000783A000C0000F00F
:103E380012FE3B78012705900193019A7B1E9A4256
:103E480032DDF8B2013807282CD802F0F9FF040651
:103E5800080A11192025287904E0688811E0E88803
:103E68000FE0287A05AB3200210002F035FA19E09C
:103E7800280005AB32002100103002F09EFB11E053
:103E8800288B05AB3200210002F09DF90AE005AB52
:103E980032002100E86903E032002100286A05ABFE
:103EA80002F0E4F90137C8E70A2102ABC91804ADEA
:103EB800059B022228000B800BF012FA2B7805983C
:103EC80023706B78637007B0F0BDF0B587B017004A
:103ED80002AAD51D022206002A7000782A000C00CA
:103EE80000F0B9FD2B78012505900193019A6B1E0E
:103EF8009A4211DDEBB2012B06D0022B0AD105AB99
:103F08003A002100B06B03E03A002100706B05AB6A
:103F180002F0ACF90135E9E70A2102ABC91804AD92
:103F2800059B022228000B800BF0DAF92B78059804
:103F380023706B78637007B0F0BDF0B50F2487B0BD
:103F48006C4404AB05AF050000780093019723008B
:103F58000E0000F05DFD0023E356002B09D1390067
:103F6800300002F06DF939006863300002F068F93A
:103F7800A8630020205607B0F0BD244BF7B5040015
:103F88000D00994240D0237AC088C01810F006F975
:103F98009623071C5B009D4207D0E123DB009D426E
:103FA80001D0642D03D11A4D02E01A4D00E01A4DDC
:103FB800E0690CF013F9061C207A10F03DF9011C99
:103FC800381C0FF007FF0090206A0CF007F9011C5D
:103FD800301C0FF0FFFE00990FF00EFC0190281C1A
:103FE8000CF0FCF80BF000FF011C00980FF004FC2B
:103FF800019BE060191CA362381C0FF0C5FD011C71
:10400800301C0FF0E7FEE062F7BDC046FFFF00007E
:104018009A99193F0AD7233F304C463FF0B587B0ED
:1040280004AB0400007800930F2305AE6B4401969F
:104038000D0000F0EDFC6B46DB7B01275BB2002B2B
:104048003CD1F8B20138062830D802F0F9FE040A4B
:1040580010161C2329003100280002F02BF92071CA
:1040680029E03100280002F09AF8608023E031004E
:10407800280002F094F8E0801DE03100280002F0EA
:1040880019F9207217E0220031001032280002F0DE
:104098002EF810E03100280002F081F820830AE0B1
:1040A8003100280002F0CCF8E06104E0310028007B
:1040B80002F0C6F820620137092FC2D16B460F20E3
:1040C800185607B0F0BDC046FE2330B50C0093B0BB
:1040D80015009B0502681093119343680E9204A97A
:1040E80006AA0EA803930F9300F0C1FC210010222A
:1040F8000AA80BF0F5F8022308AC009306AA0AAB4D
:1041080004A90EA8019400F007F80822210028004D
:104118000BF0E6F813B030BDF0B51F00002385B0F2
:1041280001920B9A0090136053600A0039000A9CB0
:10413800002500F0ACFCA54210DA019AAB00D65875
:10414800214BF618EB00FB181868596811F0E4FECB
:104158000B9BB600F0500135EDE73C00002C30DD3C
:10416800A2000199671E043A8D587B001C19164B52
:104178000B9A013DE418AD00009B5519A400E158C5
:1041880028680FF039FB0026009AFB00D318286036
:104198000293BE42E1DA0C49019A8C46B300D25828
:1041A80028680392624494000B9A01361419029A03
:1041B800D1580FF0E9FC011C20680FF00BFE2060BD
:1041C800E7E705B0F0BDC046FFFFFF3FF0B51900B7
:1041D80085B00700100014001D0001F05FFE0EF00E
:1041E800DFFFC6B2300011F0F9FD02000B0020001D
:1041F800290002F0D5FE002805D03100380002F071
:10420800B9FEC8B24EE0380011F018FE0022009046
:10421800019100232000290002F0C2FE002833D1BA
:10422800200029000BF07AFF02000B002000290073
:1042380002F0B6FE002827D10098019922002B0031
:1042480010F078FB0BF0CCFD0022174B06000F0096
:1042580010F034F80BF064FE02000B003000390057
:1042680011F0D6F90BF0BCFD0022029003910F4B20
:104278003000390010F060FF02000B00029803992B
:1042880002F09EFE002806D10098019922002B001A
:104298000BF0FCFF01E00020002101F0FFFD0EF013
:1042A8007FFFC0B205B0F0BD0000E03F0000B03CA9
:1042B8000923154A03700261144A154B4261154AD5
:1042C80043608261144A00234262144A8360826216
:1042D800134AC360C262134AC3618263124A03620B
:1042E800C263124A03630264012243634364836422
:1042F8000F4B5242C3640F4B03650F4B03660F4BC2
:104308008265C3657047C0461C7CE13D3480D73F59
:1043180007F0963D0000A040CDCC0C3E67D5273E67
:10432800E63F4CC091ED3CBFFB3A403FB150834063
:104338005DFEE33E363C85BF00004040FFFFFF7F47
:10434800F0B587B004AB0400007800930F2305AEE6
:104358006B4401960D0000F05BFB6B46DB7B01278D
:104368005BB2002B1ED1F8B20138032812D802F034
:1043780067FD02040B0E221D01E0220018323100F5
:10438800280002F0A8F90AE022002C32F7E7220000
:104398004032F4E73100280001F052FF206601376F
:1043A800062FE0D16B460F20185607B0F0BDF0B5C8
:1043B80087B002920393E1220CABC0CB1B880500A7
:1043C8000491D200934221D005D8642B0DD09622B7
:1043D8000424520004E0314A934204D00124304AB4
:1043E800934215D003E0022412E0052410E00024D3
:1043F8000298039901222B4B524202F0DDFB002860
:1044080043D1029A039BAA65EB653EE0046EEFE791
:104418000122A86DE96D5242224B02F0CDFB002823
:10442800E5D1AA6DEB6D30003900801A99410EF084
:1044380045FF00221C4B10F07DFA0F00060011F01A
:104448006BFDA4002C19216801900FF09DFB616998
:104458000FF034F8A16A059001980FF095FB32002F
:104468003B0001903900300010F066FE11F054FD59
:10447800011C01980FF022F8E16B0FF01FF8011CE6
:1044880005980FF0B9F9041CB2E7211C04980FF045
:10449800A1FC0F990FF09EFC07B0F0BD701700004B
:1044A80030750000FFFFFF7F65CDCD41F0B587B0C7
:1044B800160002AAD71D052205003A7000783A00B6
:1044C8000C0000F0C8FA3B78012705900193019A87
:1044D8007B1E9A4229DDF8B20138042823D802F05D
:1044E800AFFC030810161C00281D05AB3200210084
:1044F80004E028003200210005AB183002F08FF8E4
:1045080011E0280005AB320021002C30F6E7280026
:1045180005AB320021004030F0E705AB3200210046
:10452800286E01F0A3FE0137D1E70A2102ABC918B2
:1045380004AD059B022228000B800AF0D1FE2B78DF
:10454800059823706B78637007B0F0BDF0B50F263F
:10455800012489B0039202AAB61832000700007835
:1045680034700D0000F077FA36780790631E9E428B
:104578000CDDE3B2012B07D107AB00932A00B86D1D
:10458800F96D039B01F0D3FE0134EFE7122102AB72
:10459800C91806AC079B022220000B800AF0A0FE77
:1045A800237807982B7063786B7009B0F0BDF0B56D
:1045B8000F2487B06C4404AB05AF05000078009366
:1045C800019723000E0000F023FA0023E356002B86
:1045D80005D13900300001F094FEA865E965002096
:1045E800205607B0F0BDC04605230E4A30B5C2615B
:1045F800020003700025002300246421283204628D
:10460800456283611170084A0100C26200222931A3
:104618008460C560436103610A704A708A700363ED
:1046280030BDC046C9B28B5323291D56F0B50F279C
:1046380087B06F4404AB05AE040000780093019680
:104648003B000D0000F0E4F90023FB56002B10D1CD
:104658003100280001F0F4FD3100A061280002F0CB
:1046680001F82300283318703100280001F0E8FD14
:10467800E0620020385607B0F0BDF7B516001F00FD
:104688008268C368040039003000801A9941656A5D
:1046980000900191AC46250001992A358C4509DB2B
:1046A80003D1216A0098814204D3BB4202DC09D1BC
:1046B800B24207D900232361002300222B70002374
:1046C800A260E360A368E268134301D1A660E760D3
:1046D8002300293300931B78002B13D1A268E368C9
:1046E80030003900801A99410EF0B4FD61690EF06E
:1046F800E5FEA169606102F0B1FC002802D0012347
:10470800009A137023002B3300931B78002B13D1CE
:10471800A268E36830003900801A99410EF09AFDCA
:10472800216B0EF0CBFEE16A206302F097FC0028B3
:1047380002D00123009A13702B78002B12D1A268A3
:10474800E36830003900801A99410EF083FD216931
:104758000EF0B4FEE169206102F080FC002801D06F
:1047680001232B70002F07DC01D1002E04D1012278
:104778000023A260E36001E0A660E760230029331C
:104788001B78089A13702B78099A137023002B331F
:104798001B780B9A1370099B1B78002B06D1E569CF
:1047A8000021281C02F036FC002804D0FE230A9AB7
:1047B8009B05136005E02069291C0FF01DF80A9B72
:1047C8001860F7BDF0B587B0170002AAD51D0322FF
:1047D80006002A7000782A000C0000F03CF92B78BB
:1047E800012505900193019A6B1E9A421BDDEBB2DD
:1047F800022B08D0032B0ED0012B12D105AB3A00A7
:104808002100B0690BE0282005AB30563A002100A2
:1048180001F0A8FE05E03A002100F06A05AB01F0BE
:1048280025FD0135DFE70A2102ABC91804AD059B58
:10483800022228000B800AF053FD2B78059823707C
:104848006B78637007B0F0BDF0B50F2789B016001C
:1048580002AABF18072205003A7000783A000C0037
:1048680000F0F9F83B78012707900393039A7B1E21
:104878009A422FDDF8B20138062829D807AB02F092
:10488800DFFA040C1014171A220000932200A868FB
:10489800E968330001F04BFD1AE032002100686935
:1048A80014E032002100286910E02A00293204E0CF
:1048B8002A002A3201E02A002B3210782100320027
:1048C80001F068FD04E032002100286B01F0CEFC05
:1048D8000137CBE7122102ABC91806AD079B0222AC
:1048E80028000B800AF0FCFC2B78079823706B7863
:1048F800637009B0F0BD174B70B504000D00994204
:104908000AD100230361030000222A331A7000220F
:1049180000238260C3601BE0282020560E4A4843CB
:104928004308C018002100230EF0F4FB96232062F0
:1049380061625B009D4205D0E123DB009D4203D00C
:10494800642D03D1054B02E0054B00E0054BE36104
:1049580070BDC046FFFF000080969800C9B28B5218
:1049680076845F51C9B28B53F0B587B004AB0400AD
:10497800007800930F2305AE6B4401960D0000F0FC
:1049880047F86B46DB7B01275BB2002B3BD1F8B2C3
:10499800013805282FD802F053FA030A10161D27EC
:1049A8003100280001F0ADFCA060E16028E0310092
:1049B800280001F045FC606122E03100280001F088
:1049C8003FFC20611CE0059BEA5C511E8A412100E6
:1049D800293105E0059BEA5C511E8A4121002A31F4
:1049E80001330A7005930BE0059BEA5C511E8A416E
:1049F80021002B31F4E73100280001F021FC20636D
:104A08000137082FC3D16B460F20185607B0F0BDE9
:104A1800F7B51C00002307000D00089809990B60E2
:104A2800237003609833032A13D904230B602B786F
:104A380001A90B706B7802224B706B469E1D3000EB
:104A48000AF04EFC3388089A1360AB78BB4201D059
:104A58009C232370F7BD10B51478002C01D09C421C
:104A680002D20020107001E08870042010BD37B514
:104A78000B00012114001160002502221D606260F4
:104A88005D6000930194130000F05CF837BDF7B542
:104A9800156806000C00281C0021170002F0BAFA5D
:104AA800002830D12068616811F036FA73680190E7
:104AB800A068E168009311F02FFA011C061C009809
:104AC8000FF062F801990EF0F9FC011C281C0FF098
:104AD8005BF80021051C02F09DFA002813D1291C5F
:104AE80001980FF077F911F0CFF920606160009913
:104AF800281C0FF049F8011C301C0FF06BF911F05D
:104B0800C3F9A060E1607E680021301C02F082FADF
:104B1800002816D1A068E16811F0FEF9011C051CF7
:104B2800301C0FF031F80021061C02F073FA00283F
:104B380007D1311C281C0FF04DF911F0A5F9A06020
:104B4800E160F7BDF0B597B00793069213000B929A
:104B5800079A05900991934200DD0B9200230024E7
:104B68001093129314931193139315930A93079B1D
:104B78009C420EDA099B6200D2180599069802F049
:104B8800E9F8A30012AA985014AA0F90985001347B
:104B9800EDE700273C000B9B9C4200DBCBE0A31C0D
:104BA8000893099B6500EB180C93E518069B12AE59
:104BB8001B1B0D93631C0493079B621C181B31007D
:104BC80002F002F8049B2418A34217D0099B013C69
:104BD8006200D21805990C9B069802F00DF91D99F0
:104BE8001D9BA400C9591B191A6819601D9B0C91BB
:104BF800DA51BB59A35114ABFA58E250069B049AF8
:104C0800934210DD6B1E9C00059B059A1C192368B6
:104C18000FA90F930D986B1C00F022F91C9BD8511B
:104C28000F9B236002E01C9B0A9ADA51079B049AA7
:104C3800934218DD6B1E9C00059B0D981C19236878
:104C48000F93FE239B052360079B991A10AB0293D1
:104C5800AB1C0193059B2A0000931C9BDB5900F0B9
:104C680071F80F9B236012ABDC1914ABDD19089B9C
:104C7800079A93425CDC089B00215E1E6368181C3F
:104C88000F9302F0C7F900284CD1099B76005A1EF1
:104C9800049BD2189319294A0C939B18059A9B00D8
:104CA80098580BF0A1F80F9B191C0D930EF0A4FD5A
:104CB800011C0EF069FF011CFE2080050FF08AF828
:104CC8000021061C02F0ACF9002800D00026696813
:104CD8000D980EF091FD011C0EF056FF011C301CC2
:104CE8000EF052FF164902F0A5F9002812D0069BD3
:104CF800049A93420ADD04990C9A581A01320599CC
:104D080002F028F80F90606068600BE00A9B63600F
:104D18006B6007E0301C0BF03DFB011C0F980EF098
:104D280033FF6060089B04340133089304359EE721
:104D38000437049C2FE717B0F0BDC046FFFFFF3FC4
:104D4800F304B539F0B5040089B00E00181C002131
:104D58001700059302F05EF9BD00002843D1002C2E
:104D680019DDA3005B190E9A083B0021D05802F008
:104D780051F900280FD0013CF1E7AB000E9A043B33
:104D88000021D05802F046F900280ED00135079BC3
:104D9800AB42F2DC069E002E07DD731E5D00069313
:104DA8000F9BED1863190793F1E7002C1BDD109B8F
:104DB8000E9A02930E9B3100009320000F9B0197DF
:104DC80001F030FF802212069446059B31006344AF
:104DD8001A000F9B200002930E9B0193109B0093D7
:104DE8003B0001F069FF09B0F0BD000070B50D1C73
:104DF8000AF0FAFF041C281C0AF0F6FF011C051C27
:104E0800201C02F00DF9291C00280ED0201C0EF0E1
:104E1800F3FC011C0EF0B8FEFE2189050EF04EFBD6
:104E28000BF0B8FA011C281C15E0201C02F00CF944
:104E380000280ED0211C281C0EF0DEFC011C0EF0F0
:104E4800A3FEFE2189050EF039FB0BF0A3FA011C25
:104E580000E00249201C0EF097FE70BDF304B53F38
:104E6800F0B587B005000E0002920093002802DC1E
:104E780000230393BBE0431E0299009A1800039392
:104E880001F068FF0021041C02F0C4F80028EFD1EB
:104E9800211C3068FFF7AAFF00210190306802F05A
:104EA800DDF8002805D0802212069446019B634451
:104EB800019301980AF098FFC021090502F0B0F8A3
:104EC800009B4C4AED189C1800286BD0AB1E05932C
:104ED800029BA4001F1901235B4204933D00049B1D
:104EE800009C01330493E621059BC9059C4205DC1F
:104EF80028680EF049FE013401C5F4E701980EF068
:104F080043FEE6210190C90530680EF03DFE306091
:104F180001980AF069FFC021090502F09FF80028EE
:104F2800DCD0009A02990398346801F013FF011C41
:104F3800201CFFF75BFF3568041C0021281C02F0C9
:104F48008DF8002802D080231B06E418291C201C99
:104F58000EF040FF211C0EF04FFC211C0390281C72
:104F68000EF038FF011CFE2080050EF045FC051CE4
:104F7800009B059A934208DC3868291C0EF004FE51
:104F8800009B01C701330093F2E70025C021201CD4
:104F980009050EF0F9FD049B0135041CAB42F5DA56
:104FA800306024E037680198391C0EF013FF01992E
:104FB8000EF022FC01990390381C0EF00BFF011C27
:104FC800FE2080050EF018FC029BA400071C023D81
:104FD8001C19009BAB4208DC2068391C0EF0D4FD7C
:104FE800009B01C401330093F3E7019B33600398EE
:104FF80007B0F0BDFFFFFF3F70B505000400343572
:10500800A54209D00434231F0021186802F002F8D1
:105018000028F5D1012000E0002070BDF0B514682B
:105028001C198C420FD806998B420ED80021994240
:1050380006DA059D17686E5C4518EE550131F6E7EE
:105048001460002003E0292000E026204042F0BD43
:10505800F0B5334B85B0C25C04000193002A5CD0E4
:105068000125FCF761FD2E002E4A6B1E1100194127
:105078000292314209D02C4AE9B2D35C2B4A200073
:105088009B185B001A5BFCF767FE01351B2DEBD103
:105098002000FCF7C5FC00250127029B2B413B4261
:1050A80017D101351A2DF8D10025019B1322E5549B
:1050B8001F4B2900E0180AF02FF91E4B1E48E21872
:1050C8001E4B1F49DB7865541B185B00E31802333D
:1050D8001BE0154B1B4A5B5DE3189B181B78002BE4
:1050E800DFD00126184A6B00D35E0393039A731E20
:1050F8001A413A4203D0F1B22000FCF7F3FD013621
:105108000C2EF3D1CDE7042D07D00232901E1E8855
:10511800008801358642F6D1655405B0F0BDC04619
:10512800810C0000EF79F203908101081F0600004E
:10513800660C0000280C0000330500000E810108F1
:105148007D0C0000650C0000AA810108F8B51F005D
:1051580000233B70154B14005B18013B1B78144A65
:105168000D009B185B00C3185988069B0600198020
:10517800104B994218D0104BC05A01F0FBFE89B26F
:10518800002903D00D4BF35C002B0DD001231A002E
:10519800013DEDB2AA40A1683B700A43A26022001B
:1051A8003E343D3213702370F8BDC0460E810108AD
:1051B80033050000FFFF00007A0C0000820C00009D
:1051C8000023F7B501913349E1258C461A000121E6
:1051D800314FED0064461C410C420ED02F4EFC5C52
:1051E800A419019E6400A45BAC4204D02C4EB442C6
:1051F80003D0012201E02B4C015501331A2BE9D1D0
:10520800284BC35C002B04D000239A4240D0103BAB
:105218003EE0254A0121805A1F4D04001D4A1A41CB
:105228000A4209D0EA5C019E013A5200965B321CA0
:10523800A64200D9221C94B201331A2BEED1184E83
:105248000023B44224D0210001F094FE89B2002941
:1052580019D10125104F6B1E1B2D12D00D4A0121AB
:105268001A410A4212D0FB5C019A013B8B40985AC2
:10527800B0420BD0210001F07DFE89B2002902D195
:1052880004E0002304E010235B4201E00135E2E77B
:105298001800FEBDEF79F20390810108FFFFFF7F40
:1052A800FFFF0000B30C0000240C000070B50400E0
:1052B80088B003AD244B0E00042202A928000293F3
:1052C8000AF00EF82B78BE2223706B78FF326370D9
:1052D800AB7804A9A370EB7806A8E37000230492C6
:1052E8000593B63AFF3A09F0FBFF06A9201D0822EC
:1052F80009F0F6FF336802A9103B04222800029344
:1053080009F0EEFF2B78200023736B786373AB787A
:10531800A373EB7801ADE3732A00316800F07EFED9
:1053280033682A78E3181A7133686A78E3185A716F
:1053380000223368E3189A713368E418E27133681D
:105348000833336008B070BD00000202F0B587B0C2
:10535800160002AAD71D0C2205003A70FE203A005A
:105368000C00FFF778FB3B78012705900193019A21
:105378007B1E9A4252DDF8B201380B284CD801F056
:105388005FFD06080A0D151D252D2F373C442C4BB3
:105398003CE02C4B3AE0C8231B0137E02A4805AB18
:1053A80032002100281801F040FB35E0274805AB02
:1053B80032002100281801F05BFB2DE0244805ABE2
:1053C80032002100281800F074FE25E0214B32003D
:1053D800E85A210005AB00F0F6FE1DE01E4B15E073
:1053E8001E4805AB32002100281800F009FF13E021
:1053F80005AB320021001A4803E0320021001948A9
:1054080005AB281800F0A8FE06E0174BE85C320050
:1054180005AB210000F060FF0137A8E70A2102ABC5
:10542800C91804AD059B022228000B8009F058FF1B
:105438002B78059823706B78637007B0F0BDC04671
:105448007E0C00007F0C0000280C0000180B0000E8
:10545800FC0B0000240C0000840C0000860C0000EB
:105468008A0C00009E0C0000B20C000070B50024ED
:1054780000251460094C1C605D6000248C420BDA26
:10548800457B182D05D185681560056846681D603F
:105498005E6001341030F1E770BDC046FFFF0000C8
:1054A80030B585B06B46DC1C23000D1C02AA01A98F
:1054B800FCF778FA23780120002B08D0041C291C5B
:1054C800019801F0A7FD002800D00024E0B205B043
:1054D80030BDF0B5002485B001930A9B00921C7082
:1054E8000B9B0D001C700B6803A9C25CC3185B788A
:1054F8000A704B7002AB9F1D02220600380009F0AB
:10550800EFFE0C9A3B881360019A934203D9E0237B
:105518000A9A13700FE09C4206DA29683219525C25
:1055280000990A550134F6E7009A0B9992780A70A7
:105538002A68D3182B6005B0F0BD0B4B30B559184D
:1055480001390B78094C591E5B00C3181D5B954245
:1055580004D0074D4118491901250D701A5301222D
:10556800044BC25430BDC046908101083E0C000077
:10557800660C0000810C0000013910B504000329F5
:105588000DD86830FDF766FF01212000FCF74CFCC0
:10559800034B0221236663662000FCF745FC10BD1F
:1055A80000004842F7B50222A74B0400C254A74B9B
:1055B800013AC25404320133C254A54B1332C01805
:1055C800A44909F08DFE0122A34B5242E31800932F
:1055D800A24BE3180193009B01991A8002338B4276
:1055E800FAD1642096219E4D9B4B4900E5529D4B74
:1055F800BB27E0529C4B9D4AE152E123DB00A352BA
:105608009B4A3F01E2539B4F9B4EE5532637E0539D
:105618009A4FE1539A4FE3539A4FE2539A4FE55307
:105628009A4FE0539A4FE1539A4FE3539A4FE253FC
:105638009A4FE5539A4FE0539A4FE1532637E35375
:10564800994FE253994FE553994FE053994FE153DE
:10565800994FE353994FE253994FE553994FE053CC
:10566800994FE153994FE3532637E253984FE55347
:105678002637E053974FE153974FE353974FE25341
:10568800A23FE053964FE553964FE153964FE353AD
:10569800964FE253964FA753964EA053964EA55356
:1056A800964EA153964EA353964EA2532636A75311
:1056B800954EA053954EA5532636A153944EA35309
:1056C800944EA253944EA753944EA553944EA05370
:1056D800944EA153944EA353944EA253944EA35365
:1056E8000C3EA553934EA053934EA153934EA353F0
:1056F800934EA253934EA053934EA553934EA1534A
:10570800934EA353934EA253934EA753934EA05335
:105718009348255293482152BA210901635292496C
:105728006252924A9249A752924AA352924AA3526B
:10573800924AA352924AA352924B4022E01809F08F
:10574800CFFDAE23904A1B01E25000238F4A9049B7
:10575800A3508C4AA3508F4AA1508F4A0121A350CD
:105768000432A3508D4A4942A350B0238C4A1B01EE
:10577800E2508C4A8C4BE2508C4A8D4BE2508D4A59
:105788008D4BE25080238D4ADB05A3500432A35091
:105798008B4A8C4BE2508C4BE218019B19800233E8
:1057A8009342FBD1894B0521E5520023884A894D54
:1057B800A354894A8948A354894AA154894A491853
:1057C800A154894AA218595711805900095A01331E
:1057D800918202320A2BF6D1844A8549A354854B1B
:1057E80000221800E252009A12888A4203D0E55A31
:1057F800954200D22252009A02320092009D019AEC
:105808009542F0D1002501267B4B2B4133420BD02A
:105818007A4B7B4A5B5D20009B185B00E3189A88F3
:10582800784BE95CFFF789FE01351A2DECD101218F
:10583800754B764AE318A218197001339A42FBD1C6
:105848002000FFF705FCF7BD7E0C00007F0C000070
:10585800280C0000F6800108180B0000FC0B000063
:10586800307500003E0B0000640B00008A0B00003E
:10587800701700001A0B0000DE0B0000660B00001A
:105888008C0B0000B20B00001C0B0000420B000048
:10589800680B00008E0B0000B40B00001E0B00000C
:1058A800440B00006A0B0000B60B0000320B00002E
:1058B800580B00007E0B0000A40B0000CA0B000070
:1058C800280B00004E0B0000740B00009A0B000020
:1058D8002A0B0000760B00009C0B0000C20B000096
:1058E800460B00006C0B0000920B0000B80B000088
:1058F800DC050000220B0000480B00006E0B0000C6
:10590800940B0000BA0B0000240B00004A0B0000A7
:10591800960B0000BC0B0000E20B0000260B0000F9
:105928004C0B0000720B0000980B0000BE0B00002F
:105938003C0B0000560B00007C0B0000A20B000083
:10594800C80B00002C0B0000520B0000780B000065
:105958009E0B0000C40B0000EA0B00002E0B000099
:10596800540B00007A0B0000C60B0000EC0B000083
:105978009C800108340B0000360B0000380B000037
:105988003A0B0000D80A0000000082C2DC0A0000BE
:1059980000002A43E40A0000EC0A0000F40A0000B0
:1059A8000000FA420000C842FC0A00000024F44942
:1059B800F80A0000F874C44C040B00000C0B00003B
:1059C80000001041140B0000220C0000240C000001
:1059D800840C000090800108850C00007C80010880
:1059E800860C0000870C00008A0C0000B20C000036
:1059F800FFFF0000260C0000EF79F20390810108F8
:105A0800FB050000DC800108660C0000790C000032
:105A1800002370B5002400251B4A1C4983541C4AE6
:105A280001268352BB3AFF3A821814605560194A1E
:105A38007642821814605560AD22120182181460F3
:105A48005560154A81521E328118144A85182C0057
:105A58001A000E800231227000230134A942F8D1C5
:105A680066210F4A83540F4A83540F4A81540F4AC0
:105A7800653983540E4A83540E4A81540E4A83541E
:105A88000E4A835470BDC0467D0C0000307500007E
:105A98007A0C0000C80A0000220C0000660C000006
:105AA800810C0000820C0000830C0000B30C000085
:105AB8007C0C0000880C0000B40C0000B50C000041
:105AC80070B5394C035D93420CD0002A02D0931E66
