:020000040000FA
:1000000000040020810A000015070000610A0000BA
:100010001F07000029070000330700000000000050
:10002000000000000000000000000000A50A000021
:100030003D070000000000004707000051070000D6
:100040005B070000650700006F07000079070000EC
:10005000830700008D07000097070000A10700003C
:10006000AB070000B5070000BF070000C90700008C
:10007000D3070000DD070000E7070000F1070000DC
:10008000FB070000050800000F0800001908000029
:10009000230800002D080000370800004108000078
:1000A0004B080000550800005F08000069080000C8
:1000B000730800007D080000870800009108000018
:1000C0009B080000A5080000AF080000B908000068
:1000D000C3080000CD080000D7080000E1080000B8
:1000E000EB080000F5080000FF0800000909000007
:1000F000130900001D090000270900003109000054
:100100003B0900001FB500F003F88DE80F001FBD8C
:1001100000F0ACBC40F6FC7108684FF01022401CA7
:1001200008D00868401C09D00868401C04D0086842
:1001300000F037BA9069F5E79069F9E7704770B554
:100140000B46010B184400F6FF70040B4FF0805073
:100150000022090303692403406943431D1B104621
:1001600000F048FA29462046BDE8704000F042BA47
:10017000F0B54FF6FF734FF4B4751A466E1E11E0DA
:10018000A94201D3344600E00C46091B30F8027B3B
:10019000641E3B441A44F9D19CB204EB134394B25D
:1001A00004EB12420029EBD198B200EB134002EBB2
:1001B000124140EA0140F0BDF34992B00446D1E952
:1001C0000001CDE91001FF224021684600F0F4FB58
:1001D00094E80F008DE80F00684610A902E004C8FB
:1001E00041F8042D8842FAD110216846FFF7C0FF7C
:1001F0001090AA208DF8440000F099F9FFF78AFFCB
:1002000040F6FC7420684FF01025401C0FD0206889
:1002100010226946803000F078F92068401C08D030
:100220002068082210A900F070F900F061F9A869AF
:10023000EEE7A869F5E74FF080500369406940F6A2
:10024000FC71434308684FF01022401C06D0086838
:1002500000F58050834203D2092070479069F7E788
:100260000868401C04D00868401C03D00020704778
:100270009069F9E70420704770B504460068C34DE3
:10028000072876D2DFE800F033041929631E250021
:10029000D4E9026564682946304600F062F92A46CE
:1002A0002146304600F031F9AA002146304600F0E0
:1002B00057FB002800D0032070BD00F009FC4FF46C
:1002C000805007E0201D00F040F90028F4D100F034
:1002D000FFFB60682860002070BD241D94E80700C3
:1002E000920000F03DFB0028F6D00E2070BDFFF715
:1002F000A2FF0028FAD1D4E901034FF0805100EBAE
:10030000830208694D69684382420ED840F6F8704E
:1003100005684FF010226D1C09D0056805EB8305B8
:100320000B6949694B439D4203D9092070BD55694A
:10033000F4E70168491C03D00068401C02D003E0C8
:100340005069FAE70F2070BD2046FFF735FFFFF731
:1003500072FF0028F7D1201D00F0F7F80028F2D135
:1003600060680028F0D100F0E2F8FFF7D3FE00F05B
:10037000BFF8072070BD10B50C46182802D0012028
:10038000086010BD2068FFF777FF206010BD41684E
:10039000054609B1012700E0002740F6F8742068FF
:1003A0004FF01026401C2BD02068AA68920000F065
:1003B000D7FA38B3A86881002068401C27D020688D
:1003C000FFF7BDFED7B12068401C22D026684FF051
:1003D0008050AC686D68016942695143A9420DD9EA
:1003E000016940694143A14208D92146304600F0E5
:1003F000B8F822462946304600F087F800F078F831
:100400007069D2E700F093F8FFF784FEF6E77069B1
:10041000D6E77669DBE740F6FC7420684FF01026DB
:10042000401C23D02068401C0CD02068401C1FD0EA
:100430002568206805F18005401C1BD027683879A5
:10044000AA2819D040F6F8700168491C42D001680A
:10045000491C45D00168491C3ED001680968491C07
:100460003ED00168491C39D000683EE0B069DAE747
:10047000B569DEE7B769E2E710212846FFF778FEA5
:100480003968814222D12068401C05D0D4F8001080
:1004900001F18002C03107E0B169F9E730B108CA63
:1004A00051F8040D984201D1012000E000208A4259
:1004B000F4D158B1286810B1042803D0FEE72846CB
:1004C000FFF765FF3149686808600EE0FFF722FE1C
:1004D00000F00EF87169BBE77169BFE7706904E06D
:1004E0004FF480500168491C01D000F0CBFAFEE7C0
:1004F000BFF34F8F26480168264A01F4E06111439B
:100500000160BFF34F8F00BFFDE72DE9F0411746B3
:100510000D460646002406E03046296800F054F8EF
:10052000641C2D1D361DBC42F6D3BDE8F08140F69B
:10053000FC700168491C04D0D0F800004FF48051D1
:10054000FDE54FF010208069F8E74FF080510A690F
:10055000496900684A43824201D810207047002050
:10056000704770B50C4605464FF4806608E0284693
:1005700000F017F8B44205D3A4F5806405F5805562
:10058000002CF4D170BD0000F40A0000000000202F
:100590000CED00E00400FA05144801680029FCD0C5
:1005A0007047134A0221116010490B68002BFCD0E0
:1005B0000F4B1B1D186008680028FCD0002010603D
:1005C00008680028FCD07047094B10B501221A605A
:1005D000064A1468002CFCD0016010680028FCD08A
:1005E0000020186010680028FCD010BD00E4014015
:1005F00004E5014070B50C46054600F073F810B9EB
:1006000000F07EF828B121462846BDE8704000F091
:1006100007B821462846BDE8704000F037B8000012
:100620007FB5002200920192029203920A0B000B06
:100630006946012302440AE0440900F01F0651F80C
:10064000245003FA06F6354341F82450401C8242F8
:10065000F2D80D490868009A10430860081D016827
:10066000019A1143016000F03DF800280AD00649C4
:1006700010310868029A10430860091D0868039A3F
:10068000104308607FBD00000006004030B50F4CED
:10069000002200BF04EB0213D3F800582DB9D3F8A1
:1006A000045815B9D3F808581DB1521C082AF1D3C3
:1006B00030BD082AFCD204EB0212C2F80008C3F8CD
:1006C00004180220C3F8080830BD000000E0014013
:1006D0004FF08050D0F83001082801D0002070473A
:1006E000012070474FF08050D0F83011062905D016
:1006F000D0F83001401C01D0002070470120704725
:100700004FF08050D0F830010A2801D00020704707
:100710000120704708208F490968095808471020B0
:100720008C4909680958084714208A4909680958FA
:100730000847182087490968095808473020854923
:100740000968095808473820824909680958084744
:100750003C20804909680958084740207D490968BC
:100760000958084744207B49096809580847482028
:1007700078490968095808474C207649096809589A
:10078000084750207349096809580847542071499F
:1007900009680958084758206E49096809580847E8
:1007A0005C206C4909680958084760206949096854
:1007B00009580847642067490968095808476820AC
:1007C00064490968095808476C2062490968095852
:1007D000084770205F4909680958084774205D4937
:1007E00009680958084778205A490968095808478C
:1007F0007C205849096809580847802055490968EC
:10080000095808478420534909680958084788202F
:1008100050490968095808478C204E490968095809
:10082000084790204B4909680958084794204949CE
:10083000096809580847982046490968095808472F
:100840009C204449096809580847A0204149096883
:1008500009580847A4203F49096809580847A820B3
:100860003C49096809580847AC203A4909680958C1
:100870000847B0203749096809580847B420354966
:10088000096809580847B8203249096809580847D3
:10089000BC203049096809580847C0202D4909681B
:1008A00009580847C4202B49096809580847C82037
:1008B0002849096809580847CC2026490968095879
:1008C0000847D0202349096809580847D4202149FE
:1008D000096809580847D8201E4909680958084777
:1008E000DC201C49096809580847E02019490968B3
:1008F00009580847E4201749096809580847E820BB
:100900001449096809580847EC2012490968095830
:100910000847F0200F49096809580847F4200D4995
:10092000096809580847F8200A490968095808471A
:10093000FC2008490968095808475FF48070054998
:10094000096809580847000003480449024A034B54
:100950007047000000000020000B0000000B0000AA
:1009600040EA010310B59B070FD1042A0DD310C82C
:1009700008C9121F9C42F8D020BA19BA884201D97E
:10098000012010BD4FF0FF3010BD1AB1D30703D0C6
:10099000521C07E0002010BD10F8013B11F8014B7C
:1009A0001B1B07D110F8013B11F8014B1B1B01D198
:1009B000921EF1D1184610BD02F0FF0343EA032254
:1009C00042EA024200F005B87047704770474FF0A6
:1009D00000020429C0F0128010F0030C00F01B800C
:1009E000CCF1040CBCF1020F18BF00F8012BA8BF1A
:1009F00020F8022BA1EB0C0100F00DB85FEAC17CDE
:100A000024BF00F8012B00F8012B48BF00F8012B90
:100A100070474FF0000200B51346944696462039C1
:100A200022BFA0E80C50A0E80C50B1F12001BFF4A7
:100A3000F7AF090728BFA0E80C5048BF0CC05DF80D
:100A400004EB890028BF40F8042B08BF704748BF5B
:100A500020F8022B11F0804F18BF00F8012B7047CF
:100A6000014B1B68DB6818470000002009480A4951
:100A70007047FFF7FBFFFFF745FB00BD20BFFDE719
:100A8000064B1847064A1060016881F308884068E1
:100A900000470000000B0000000B000017040000DE
:100AA000000000201EF0040F0CBFEFF30881EFF3ED
:100AB0000981886902380078182803D100E0000015
:100AC000074A1047074A12682C3212681047000084
:100AD00000B5054B1B68054A9B58984700BD0000B0
:100AE0007703000000000020F00A0000040000006E
:100AF000001000000000000000FFFFFF0090D00386
:1010000000000420BD120000E5120000E7120000FD
:10101000E9120000EB120000ED12000000000000D9
:101020000000000000000000000000002955010041
:10103000F11200000000000049550100F512000007
:1010400015DE0000ED32040079DE0000E9E9000061
:10105000F7120000F7120000BD4F010045EB000041
:10106000F7120000F7120000BDF00000F7120000B8
:10107000F71200008DDF0000F7120000F7120000E9
:10108000F712000049560100F7120000F7120000A5
:10109000F7120000F7120000F7120000F71200002C
:1010A000F7120000F7120000F7120000F71200001C
:1010B000F7120000F712000000000000000000001E
:1010C000F7120000F7120000F7120000F7120000FC
:1010D000ED600400F7120000F7120000F7120000A4
:1010E000F7120000F71200000D7B04000000000062
:1010F00000000000F712000000000000F7120000DE
:1011000000000000000000000000000000000000DF
:1011100000000000000000000000000000000000CF
:1011200000000000000000000000000000000000BF
:1011300000000000000000000000000000000000AF
:10114000000000000000000000000000000000009F
:10115000000000000000000000000000000000008F
:10116000000000000000000000000000000000007F
:10117000000000000000000000000000000000006F
:10118000000000000000000000000000000000005F
:10119000000000000000000000000000000000004F
:1011A000000000000000000000000000000000003F
:1011B000000000000000000000000000000000002F
:1011C000000000000000000000000000000000001F
:1011D000000000000000000000000000000000000F
:1011E00000000000000000000000000000000000FF
:1011F00000000000000000000000000000000000EF
:1012000010B5054C237833B9044B13B10448AFF340
:1012100000800123237010BD38040020000000006E
:1012200098E5040008B5034B1BB103490348AFF32D
:10123000008008BD000000003C04002098E5040088
:10124000A3F5803A704700BF174B002B08BF134B24
:101250009D46FFF7F5FF00218B460F461348144AC1
:10126000121A46F093FE0E4B002B00D098470D4B00
:10127000002B00D098470020002104000D000D48ED
:10128000002802D00C48AFF3008046F025FE200075
:1012900029000FF00FF846F0F9FD00BF000008002C
:1012A00000000000000000000000042038040020BE
:1012B000B4D1002000000000000000000649074AE9
:1012C000074B9B1A03DD043BC858D050FBDC00F0F1
:1012D00011FFFFF7B9FF0000DCE604000800002062
:1012E00038040020FEE7FEE7FEE7FEE7FEE7FEE744
:1012F000FEE7FEE7FEE7FEE77047000007B5044B98
:101300000093044A802300F032F803B05DF804FB38
:1013100019130000550400202DE9F84388461446AF
:10132000B2B10F4B0F4E0325002743F001092246AF
:1013300008EB070100200FF0A3F90744241A48B96D
:1013400033782BB14FF47A40C847013D02D1357054
:10135000BDE8F88301233370002CE8D1F8E700BF23
:10136000F09E04005404002070470FF0BDB9F0B5A2
:1013700095B01D46164608460C460BF0ADFF1A9B6D
:101380000D93CDE9086500252B46082205A92046C6
:101390000A958DF82C500C950BF0BBFF079B029320
:1013A000069B03939DF814308DF8115003F003024F
:1013B000012A1DD1BDF81420059DC3F3C203C2F359
:1013C00083168DF81030B20008230EA920460BF0CA
:1013D000A0FFC5F3952508AB0093324602AB0EA9DA
:1013E000284600F057FD20460BF07AFF15B0F0BDFF
:1013F000022AF8D1BDF81650C3F3C203C5F389150C
:101400008DF810300827082D2E4628BF08263B46A9
:1014100032460EA920460BF07CFFAD1B08AB02AA9A
:1014200031460EA8374400F099FD002DEBD1DAE7E4
:10143000014B01221A70704716050020704700000A
:1014400070B5124D06460FCD88B06C460FC495E8B6
:101450000F00002E84E80F004FF0FF334FF01A0208
:10146000CDE90023CDE90233094A0A484FF0EB7376
:1014700008BF0022694606930CF0A0FB08B10AF0F1
:10148000B7FF054B1E7008B070BD00BF049F04007D
:101490003114000008000020D504002007B5044BDB
:1014A0000093044A4023FFF762FF03B05DF804FB9A
:1014B000B9140000D604002038B50D4B0D4D0020A6
:1014C00018700D4804782D5DD2B21C4665B1043009
:1014D0000DF002FA08B10AF08BFF084B1A7812B12E
:1014E0002378002BFBD038BD0C300CF095FFF1E7D2
:1014F0001605002060AC002008000020D504002064
:1015000008B50848084A0378D35C3BB104300DF0B5
:1015100075F9BDE808400020FFF792BF0C300CF0D1
:1015200021FFF6E70800002060AC00200120FFF753
:1015300087BF000038B50A4DFFF717FF0421284682
:1015400000F0ECFB074B01245C71FFF7EFFF042177
:1015500005F1100000F0E2FB034B5C7138BD00BFE9
:10156000B4E604001C00002024000020037813F0DF
:10157000040216D003F00303012B03D0022B09D081
:10158000012070470A6800880232C0F383100244C9
:101590000A60F5E70B684288023303EB92130B6095
:1015A000EEE71046704700002DE9F04F044685B085
:1015B000861C00200F4615460BF0B4F8454801681C
:1015C0003960D0E90132134401335B1A824600F2DC
:1015D0001C4700F5836900F21448B3421BD3002076
:1015E000002D72D004F00F039B0143F0050363F359
:1015F0000F00DAF80020DAF80830134003331644FD
:101600004AF823000020CAF800600BF08DF8012092
:1016100005B0BDE8F08F012138460BF066F9484669
:101620000BF07EF940460BF07BF9DAF80400DAF8AB
:1016300008B0009000EA0B0003300AEB8000694616
:10164000FFF794FF009B50BB0BEA03020AEB8202F8
:1016500003F1020CD2680192013303EA0B0B0AEB8F
:101660008B0B02F00302012ADBF80C10CDF800C04E
:1016700023D0022A16D0834640460BF054F910B10D
:10168000009BCAF80430594638460BF02EF9DAE9C7
:1016900001231344DAF8002001339B1A9DE70BEA7B
:1016A0000300C9E7BDF80630C3F3891303334FEADB
:1016B000114B0CEB93030093DEE7BDF80430C3F34A
:1016C00083134FEA114B6344F5E7A40544F0060089
:1016D0008FE700BFE805002030B50A4B0A4A0B49E6
:1016E000D21AD20800239A4201D1052006E031F82F
:1016F00023500468A54202D10360002030BD0133AD
:10170000F1E700BFBCE504009CE604002C030020C8
:101710002DE9F84F224B2348FF229A600022C3F89C
:101720001824C3E90022C3F8142483F820240BF002
:101730008CFD814688B91C481C4E1D4CDFF87CA0EE
:101740000BF0F5FEA41BE4084D46A54208D100238A
:10175000184A19481946A3421BD14846BDE8F88FDC
:101760004FF00008474606EBC50BBD420AD056F8BD
:101770003710DBF80000142246F0B0FF0028C8BF85
:1017800008F101080137BC42EFD12AF82580013564
:10179000DBE720F8231042F8041B0133DBE700BF2E
:1017A000E80500209CE604007C9F0400BCE50400E2
:1017B0009CE604009C0300202E0300202C03002044
:1017C00007B5019031B9019A064B53F8320003B0C6
:1017D0005DF804FB01A8FFF77FFF0028F3D000208D
:1017E000F5E700BFBCE50400094B013903EBC0007D
:1017F000032909D8DFE801F00A0204060420704733
:101800000079704740797047002070470220704788
:10181000BCE5040030B5124C00EB400054F82150F8
:1018200002FA00F3072202FA00F06B400D4A03406F
:101830006B40C3F3821044F8213002EB8101C3F303
:10184000C202824238BF0246C3F34220824203F002
:10185000070338BF0246934238BF13464B8030BD62
:101860009C0300202C03002037B5154B93F820343F
:1018700004460BB918B90024204603B030BD46F029
:1018800025FF0130009001230E486A4601A90BF0A4
:101890005CFE05460028EED12146009A019846F0EC
:1018A0004DFBDDE900231344064803F8015C009971
:1018B0000BF083FE009903480BF098FE019CDBE7D8
:1018C000E80500207C9F0400034BD3E90030C31AD5
:1018D00058425841704700BFE80500202DE9FF47F6
:1018E000FFF7F2FF0646002840F01A818D4DC5F83B
:1018F0001804BFF34F8F6B68AC6800932340033329
:1019000005EB83006946FFF731FE009B18B1D5F85F
:101910001824002A69D004EA0302991C013305EB5C
:101920008202234005EB8303D268DB68029302F056
:101930000303022B019200916AD1BDF806307A4868
:101940009DF80460C3F38918B8F1500FC14628BF51
:101950004FF0500969F38F1309F10801ADF8063013
:101960000BF08BFCC6F3C2060746002800F0BF80D0
:101970000BF0B2FC0023082201A938460BF0BFFC93
:10198000009924EA01020132B9EB820F4FEA820387
:1019900037D95FFA89F983B32140DCB2A9EB040996
:1019A00003315FFA89FAA146604C05EB81010823F7
:1019B0004A4638460BF0A3FC34B109F108035246FD
:1019C000214638460BF09BFC009B08F1030803EB13
:1019D00098030093D5F81834002B52D1D5F8104451
:1019E000DFF85C914FF0070870E02A689A4285D8CA
:1019F0006A60304604B0BDE8F0874C491C469A4600
:101A0000D5E70C40E11C08234A4605EB8101D8E7E5
:101A1000012B6CD1BDF804604348C6F3831106293D
:101A200028BF062161F3891602318900ADF80460F0
:101A30000BF023FCC6F3C2060746002857D00BF074
:101A40004BFC0023082201A938460BF058FC4FF04C
:101A50000008BDF80420C2F383124FEA88039045C2
:101A600003F10803B6D200994A1C214003310092C9
:101A700005EB8101042238460BF041FC08F1010816
:101A8000E7E738460BF02CFCFFF71EFF80F0010063
:101A9000C6B2AEE7E3685A79B2B11B79BDF8081057
:101AA00003EB430259F8211008FA02F3052E03EA6A
:101AB000010323FA02F308BF0326B34204D32368C9
:101AC00039461B6820469847E3681C68002CE1D122
:101AD00038460BF005FC20460AF024FED5F81834F1
:101AE0000BB9009B6B6000200AF01EFECCE7D5F816
:101AF000104474B90E4B5B88012BC5D90D4B0E48B1
:101B00000E49C01AC008000440F0020000F066F858
:101B1000BAE7236820469B689847E3681C68E8E7B3
:101B2000002666E7E80500209CE60400F405002096
:101B300054030020BCE504000CE60400519F04009F
:101B40009C0300202DE9F74F224D04460F46924694
:101B500001A901221846D5F808909B46FFF724FDFD
:101B600020B3019E4FF00008B21CD84508EB0201DB
:101B700026D1194800210AF07DFE80F310000004F0
:101B800040EA1440E400731C04F0380403EA09033B
:101B900006EA090644F0010405EB8303033644EA30
:101BA000881444EA8724D86045F8264095F8203404
:101BB0001BB1FFF793FE0028FBD103B0BDE8F08F07
:101BC00009EA010105EB81015AF82830CB6008F1E0
:101BD0000108CAE7E8050020040A002000231A468D
:101BE000FFF7B0BF07B50123019201AAFFF7AAFFD3
:101BF00003B05DF804FB07B5CDE9002302236A4674
:101C0000FFF7A0FF03B05DF804FB1FB5CDE901238A
:101C1000069B039301AA0323FFF794FF05B05DF829
:101C200004FB1FB5CDE90023069B0293079B03939A
:101C30006A460423FFF786FF05B05DF804FB7FB515
:101C4000CDE90123089B0393099B04930A9B059309
:101C500001AA0523FFF776FF07B05DF804FB00003B
:101C60002DE9F3472B4D0446D01C8946164601A9A1
:101C700000228008AF68FFF797FCA8B3DDF8048066
:101C8000AB6808F102000190013338401B1AB6EB33
:101C9000830F00F103004FEA830A05EB80002DD883
:101CA0003246494646F04AF91B4800210AF0E2FD57
:101CB00080F3100008F101033B40220C05EB830385
:101CC00007EA080742EA00400337D860E40055F805
:101CD000273004F0380444F0020444EA865203F446
:101CE0007C131A4345F8272095F820341BB1FFF7E1
:101CF000F5FD0028FBD102B0BDE8F0875246494609
:101D000046F01CF9A6EB0A0209EB0A0105F10C00EA
:101D1000C8E700BFE8050020040A00202DE9F843C9
:101D20001E4B8846D3F81014044600250A46A2B973
:101D3000E1680D71D3F81014A9B9C3F81044E36831
:101D40001A60174B174EF61AF608002703F1070919
:101D5000B74211D12846BDE8F883D2681079A8426D
:101D600016D01268E3E7C968E26809681160D3F821
:101D70001034DB681C60E4E719F83720E36842455B
:101D80003946187928BF4246FFF744FD0137DFE79F
:101D900001350A2DCAD14FF0FF35DBE7E8050020F9
:101DA000BCE504009CE6040038B5094A0123D2F8DA
:101DB000104482F820341D4604B938BDE3685D71D3
:101DC000236820465B689847E3681C68F4E700BF17
:101DD000E805002007B503460846197A052911D001
:101DE0005B7A2BB1094A0A4901900AF0FBFD019880
:101DF000084901900AF0F6FD019803B05DF804EB84
:101E00000AF0E5BD002AF8D0F2E700BF889F040081
:101E100004C80400AA9F040030B5C38885B00446F6
:101E20000D4633B1144A00921449154A28460AF067
:101E3000D9FD217A05291DD0637A4BB1A088FFF71F
:101E4000D3FC104B104953F8202028460AF0CAFD55
:101E5000227A0E4BA08853F8222003920021FFF72C
:101E6000AFFC039A0A490346284605B0BDE8304056
:101E70000AF0B8BD05B030BD889F0400959F0400EE
:101E80008D9F040014A0040004C8040038A00400BE
:101E9000AD9F04002DE9F04385B01F460C9D002343
:101EA00095F80C902B7306460C469046294638460A
:101EB000FFF7B2FFB8F1060F09D8DFE808F0041207
:101EC000181F28334000314628460AF08BFD0022B7
:101ED00029463846FFF77EFF85F80C9005B0BDE82F
:101EE000F0832268314628460AF07CFDEFE7D4E90A
:101EF0000023314628460AF075FDE8E7A368009301
:101F00003146D4E9002328460AF06CFDDFE7E36898
:101F10000193A36800933146D4E9002328460AF0D0
:101F200061FDD4E723690293E3680193A3680093FA
:101F30003146D4E9002328460AF054FDC7E7636917
:101F4000039323690293E3680193A36800933146E6
:101F5000D4E9002328460AF045FDB8E708292DE911
:101F6000F84F80460E4617461C463BD8002593F88E
:101F70000C901D7319461046FFF74EFFDFF88CA03A
:101F8000DFF88CB0AE422FD918F80520594620460C
:101F90000AF028FD0135082DF4D11949194DDFF853
:101FA00074A020460AF01EFD4FF0000B5E4522D9BA
:101FB00018F80B207E2A1CD8134BD15C11F0970F18
:101FC00008BF2E22514620460AF00CFD0BF1010BF2
:101FD000BBF1080FEAD1012221463846FFF7FAFE8D
:101FE00084F80C90BDE8F88F514620460AF0FAFCC0
:101FF000D0E72E22E6E7294620460AF0F3FCE5E783
:10200000C19F0400BF9F040069E30400BD9F04005A
:10201000B79F0400C39F04004FF0A043D3F804050A
:10202000C0F3C03070474FF0A0434FF40042C3F8F4
:10203000082570474FF0A0434FF40042C3F80C2529
:1020400070474FF0A0434FF40042C3F80C2570478F
:102050004FF0A0434FF40042C3F8082570474FF0FB
:10206000A042D2F80435D94301F4004103F40043FF
:10207000C2F80815C2F80C357047183818BF4FF071
:10208000FF307047C20708B506D54FF0A0430322C2
:10209000C3F83C27FFF7D5FF830742BF4FF0A043AB
:1020A0000C22C3F8602708BD034B1868A0F1080391
:1020B00058425841704700BF30010010064B1B6862
:1020C000082B06D1054B1B68052B02D8044AD05CAF
:1020D00070470020704700BF30010010340100102D
:1020E00052A00400024AD2F80034002BFBD0704703
:1020F00000E0014010B5FFF7D7FF40B14FF080433B
:102100000022C3F80C21C3F81021C3F83825FFF7CB
:10211000CBFF002846D04FF08052614BD2F8041418
:10212000C3F82015D2F80814C3F82415D2F80C14FB
:10213000C3F82815D2F81014C3F82C15D2F81414CB
:10214000C3F83015D2F81814C3F83415D2F81C149B
:10215000C3F84015D2F82014C3F84415D2F824145B
:10216000C3F84815D2F82814C3F84C15D2F82C142B
:10217000C3F85015D2F83014C3F85415D2F83414FB
:10218000C3F86015D2F83814C3F86415D2F83C14BB
:10219000C3F86815D2F84014C3F86C15D2F844247B
:1021A000C3F87025FFF78AFF10B13E4B3E4A1A6014
:1021B000FFF784FF18B13D4BFB22C3F81825FFF74A
:1021C0007DFF48B13A493B4B0A681B6822F00F0279
:1021D00003F00F0313430B60FFF770FF18B1364B8A
:1021E0004FF400721A60FFF75FFF48B14FF0804371
:1021F000D3F80024D20744BF6FF00102C3F80024D3
:102200002E4AD2F8883043F47003C2F88830BFF306
:102210004F8FBFF36F8F2A4B1B68082B0ED1294BB2
:102220001B68052B02D8284AD35C3BB14FF0102322
:10223000D3F808224FF08043C3F858254FF01023FD
:10224000D3F80022002A03DBD3F80432002B22DA71
:102250001E490123C1F80435FFF744FF4FF0102059
:102260001224C0F80042FFF73DFFC0F80442FFF718
:1022700039FF0023C1F80435FFF734FFBFF34F8F58
:102280000E49134BCA6802F4E0621343CB60BFF3FC
:102290004F8F00BFFDE70F4B0F4A1A6010BD00BF04
:1022A00000C000408C5600404881030000F0004010
:1022B000E40E0040580200104096024000ED00E09D
:1022C00030010010340100104CA0040000E0014077
:1022D0000400FA052C0000200090D00370B5114BCB
:1022E0005B8806460D465BB10F48104C241AE40883
:1022F00024040B4632460E4944F00100FFF77BFCF4
:1023000000F02AF9702E0AD1B5F5457F07D12DF0DE
:1023100043FC80F00100C0B2064B187070BD002075
:10232000FAE700BF54030020BCE504000CE60400FB
:1023300058A00400A50A002007B5002301938DF8DA
:1023400003300DF103000BF0EBFB9DF80330032B82
:10235000F7D904210DEB01000BF0ECFB18B9019843
:1023600003B05DF804FB0020FAE7000008B50E4B4F
:102370005B884BB10D480E4B0E49C01AC0080004D3
:1023800040F00100FFF72AFC00F0E6F8BFF34F8FA2
:1023900009490A4BCA6802F4E0621343CB60BFF3F9
:1023A0004F8F00BFFDE700BF540300200CE6040080
:1023B000BCE504007EA0040000ED00E00400FA0586
:1023C00010B5114C62884AB11048114B1149C01A1E
:1023D000C008000440F00100FFF700FC00F0BCF86A
:1023E0000D4B187868B163886BB10848084B0B49EE
:1023F000C01AC0080004BDE8104040F00100FFF71B
:10240000EDBBFFF7B3FF10BD540300200CE6040042
:10241000BCE5040093A00400A50A0020ACA00400C1
:1024200010B5114B1C78ECB9104801221A702DF030
:10243000C9FE00F091FA00F08BF820460BF040FB4B
:1024400018B1852801D0FFF7BBFFFFF775FF46F0F5
:1024500093F80BF0FBFB08B9FFF7B2FFBDE81040A3
:102460000AF062BF10BD00BFA40A0020DD220000F8
:1024700062B6704772B67047FFF75EBF38B50D465B
:10248000144662B159B150B10BF026FC29462046E2
:102490000BF0F6FB18B9BDE83840FFF791BF38BD27
:1024A000EFF30580003818BF0120704707B54FF0E3
:1024B00080531A6E596E064B02F0FF021343CDE9AA
:1024C00000130822694645F039FD03B05DF804FBAE
:1024D0000036CEF47047000008B50BF011FB07483A
:1024E000074A0378D35C23B1BDE8084004300CF000
:1024F00085B9BDE808400C300BF034BF080000205F
:1025000060AC002008B500200BF0DAFA08B1FFF744
:1025100057FFBDE80840FFF709B810B5044658B1A9
:10252000FFF7DAFF204600F043FA0AF013FF00F04D
:1025300065FA0446FFF7E6FF204610BD024B1A7805
:10254000024B1A70704700BFC0010020C10100207B
:1025500000F006B800F036B800F066B800F012B827
:10256000054B1A783AB9054A1178054A12780A4398
:102570001CBF01221A707047FC0A0020C101002014
:102580000CA8002010B50A4C226882B1094B5B8868
:10259000022B0AD90848094B0949C01AC00800048F
:1025A00092B240F00300FFF75BFB0023236010BDF5
:1025B000F80A00209803002094E60400BCE504001B
:1025C000A60A00202DE9F843144B1B7807460D4658
:1025D000EBB9BDE8F883D8F80000C0F1500414F05E
:1025E000FF0404D1FFF7CEFF002DF4D1F1E7AC4298
:1025F000A8BFECB2B9192246484445F09FFCD8F870
:1026000000302344C8F8003026442D1BECE7DFF8E7
:102610001080DFF810900026E6E700BFFC0A0020DB
:10262000F80A0020A60A002008B5FFF7ABFFBDE8B6
:102630000840FFF753B900000378022B9EBF024BFE
:1026400000221A70704700BFFD0A002040F6F873A0
:102650001868431C04BF054B18684FF08053411C99
:102660001A695B6908BF03FB02F070471410001081
:1026700008B5FFF7EBFFA0F5104008BD10B5FFF758
:10268000E5FF094C2061FFF7F3FF084BE0600022F3
:102690000749C3F8082120460AF072FB18B1BDE8CB
:1026A0001040FFF78DBE10BD0C040020000B002071
:1026B000D8A704004FF4804070470220704708B547
:1026C00013460A4631B143B10146184645F036FC7F
:1026D000002008BD6FF00A00FBE76FF00B00F8E781
:1026E0000128F8B507460C4616461D4610D80B447F
:1026F000B3F5804F0FD88AB19DB1FFF7B9FF04EB56
:10270000873421182A46304645F018FC0020F8BDD1
:102710006FF03800FBE76FF01600F8E76FF00B0082
:10272000F5E76FF00C00F2E70128F7B507460D4614
:1027300016461C4624D80B44B3F5804F23D82AB341
:102740003CB3A30827D0FFF793FF144B05EB873565
:1027500029181D461A7802F0FF00002AFAD101223A
:102760001A70009023460E4832460AF045FB2B783B
:10277000002BFCD1003818BF0120404203B0F0BD4F
:102780006FF03800FAE76FF01600F7E76FF00B0014
:10279000F4E72046F2E76FF00C00EFE7FD0A0020B7
:1027A0000C04002001282DE9F047064625D8FFF744
:1027B0005FFF154FDFF854A000EB863404F5804826
:1027C000B9463A7802F0FF03002AFAD101222146E5
:1027D00050463A700AF0D0FB90B999F8003003F0F7
:1027E000FF05002BF9D104F58054A045E9D130460E
:1027F00028F0AAFB2846BDE8F0876FF03800FAE71A
:102800004FF0FF30F7E700BFFD0A00200C04002066
:1028100010B5084CD4F8083153B19BB2D4F8041168
:1028200094F800012246FFF77FFF0023C4F8083127
:1028300010BD00BF000B00202DE9F8431C4C1D46C5
:10284000D4F8083181460F4690466BB194F80021C8
:10285000824207D1D4F804211A44914202D1B3F53F
:10286000807F01D1FFF7D4FFD4F8080118B984F8AC
:102870000091C4F80471C0F58076AE4234BFB6B2A0
:102880002E464EB132464146204445F057FBD4F81F
:1028900008313344C4F80831AD1BADB215B9284630
:1028A000BDE8F883FFF7B4FF3744B044DCE700BF6E
:1028B000000B002007B50B4B0093FFF7D9FE042255
:1028C00000F500410DEB020045F038FB042269469B
:1028D0000DEB020045F024FBB0FA80F0400903B094
:1028E0005DF804FBE737DDF607B5CDE90010FFF72B
:1028F000BFFEDDE9001200F50040043003B05DF8D2
:1029000004EBFFF7DCBE37B5054601911446FFF72F
:10291000AFFE04F50044043401992A46204403B074
:10292000BDE83040FFF7CBBE7047000038B543F03C
:1029300085FD074B07490A68D3E90045821AA418A8
:1029400045F10005C3E900450860D3E9000138BD41
:10295000300C00200C0C002008B543F06FFD034B39
:102960001860034B01221A7008BD00BF0C0C002038
:10297000280C002008B5FFF7D9FF4FF47052002350
:1029800047F022F908BD704708B5FFF773FD044B07
:102990001B780BB9FFF7E0FFBDE80840FFF768BD03
:1029A000280C0020014B1878704700BF280C00202D
:1029B00010B5044643F042FD0C4A034610609CB13A
:1029C0000B480C4A03600C4B82609C4228BF1C469B
:1029D0004FF47A735C4300214460C16043F03AFDD8
:1029E000BDE81040FFF7A2BF10BD00BF100C0020D3
:1029F000140C00202929000018CC070038B543F03A
:102A00001DFD074B1D68C5F5797504460335FFF7B5
:102A10008DFF2C444FF47A70B4FBF0F038BD00BF4A
:102A2000100C002030B5164916488BB010234FF417
:102A3000907209F097FE08B109F0DAFC124D3FF0F0
:102A40006DF90FCD01AC0FC40FCD0FC42B682360FF
:102A500001A841F08BFF01203FF0D4F901203FF0A5
:102A6000D5F90A4A00231370094A1370094A1370F2
:102A7000094A1370094B01221A700BB030BD00BF18
:102A80003C0C002034000020ECA00400380C002096
:102A90003A0C00203B0C0020390C002030000020B4
:102AA0003FF038B907B5ADF806000DF106003FF06C
:102AB0002FF903B05DF804FB07B5ADF806000DF182
:102AC00006003FF029F903B05DF804FB034B1A78C8
:102AD0001AB100221A70024B18707047390C00208E
:102AE00030000020034A13781BB100231370024A00
:102AF00013707047390C00203000002010B5084BCF
:102B00001A78002AFCD101221A704FF4705303FB8B
:102B100000F420463FF056F90028FAD010BD00BF5F
:102B20003A0C0020034B1A781AB1034A10700022A5
:102B30001A7070473A0C00203B0C0020034A1378AF
:102B4000002BFCD1024B1B78037070473A0C00201D
:102B50003B0C00203FF0C6B83FF0D3B810B5044698
:102B60003FF0D1F8207010BD3FF04EB908B53FF0EE
:102B70000FF90028FBD008BD08B53FF001F9012886
:102B8000FBD008BD08B53FF0EFF8C31E58425841CE
:102B900008BD08B53FF0E8F8023818BF012008BDAD
:102BA00013B50446022C104608D0032C10D0012C7B
:102BB00014D13FF03CF9204602B010BDA1F59C4273
:102BC0000093203A44F6206300213FF0F3F8F3E746
:102BD000002102B0BDE810403FF0E0B80020EBE774
:102BE000084627F0F9BA013906290AD8DFE801F0CA
:102BF0000407040407040400012027F019BB042083
:102C0000FBE770473FF0E2B84378024AC3F3001392
:102C100013707047380C0020F7B51D460378093B48
:102C2000762B04460F46164604D920463FF0CEF8D0
:102C300003B0F0BD094801A909F0A7FD0028F4D0B0
:102C4000074B04601A78077146718560027301A909
:102C5000002202481A7009F0C2FDE9E734000020A2
:102C6000380C0020014B00221A707047380C0020ED
:102C70000B4611460BB13FF0D4B83FF0C9B808B5C8
:102C800000203FF0D1F8BDE8084001203FF0CCB86B
:102C9000034BD8881B89C01A18BF0120704700BF9A
:102CA0003400002030B5054685B010B9002005B0CD
:102CB00030BD184803A909F0A2FD04460028F5D04C
:102CC00003681A7801921146284625F0A3FF21686F
:102CD000019A013145F032F9284625F05AFF63790F
:102CE00000F8023C94F9043000F8013C0421284625
:102CF00026F0D2F8A3680360217B284627F0D4FA97
:102D000020683FF063F8034803A909F0A3FD012000
:102D1000CDE700BF34000020F8B50F4B002420227F
:102D20000F460D2183F88A201C7083F8784083F8C1
:102D30008C102246234605462CF0A6FA064650B1D2
:102D40002146284626F035F9377029460348BDE864
:102D5000F8402BF04FBCF8BDCEAB002021F70200AD
:102D600073B500220C460DF1070311468DF80720BC
:102D700025F06EFA38B90A4B9DF8075093F84310C6
:102D80000246914202D86FF01B0005E0DE7BAE42A6
:102D900003F10D0302D1227002B070BD0132F0E7E1
:102DA000CEAB00200B4BD3F801202AB983F8782052
:102DB0001146094825F013BE8C2A0BBF07220622B4
:102DC00083F8782083F8782007BF002203210022AF
:102DD0000221EEE7CEAB0020192D000037B5114DD2
:102DE000044625F0C5FE2A78042A07D142782AB97C
:102DF0000D48214625F0F3FD03B030BD40880DF1AC
:102E00000701FFF7ADFF0028F6D19DF8073007480E
:102E10000D2202FB035321465A7D01325A752BF0D5
:102E2000E9FBE9E7CEAB0020B930000085320000B5
:102E300008B50022FF2109482BF0CAFE0022FF211D
:102E400007482BF0C5FE75220648002145F09EF884
:102E5000054B064AC3F8942D08BD00BFA52D000000
:102E6000A12E0000CEAB0020FCB0002039340000C1
:102E700010B50022084C094811462BF0A9FE94F821
:102E8000440003F0EDFB00232022237084F88A2005
:102E900084F8783010BD00BFCEAB0020A12E00001A
:102EA00010B5044620B9BDE81040084825F072BDB1
:102EB000FFF7DEFF00230C2120461A462CF0E4F930
:102EC00021460348BDE810402BF094BBA12E000022
:102ED00021F7020008B50022FE2105482BF078FEFC
:102EE000BDE8084003480022012125F078BD00BF5D
:102EF000A52D0000192D000070B50C4BD3F84530FE
:102F00002BB11D7CD3F811200023AB4201DB002044
:102F100070BDC3EB03141619145B844202D1347ADA
:102F20008C4201D10133F0E70120F1E7CEAB002064
:102F30002DE9F047044688B0C0790E4625F018FE0A
:102F400090F80BA090F80C800746D044D4F80950B4
:102F5000454580F090802B1D07EB4303AA4594BFA5
:102F600002210121B3F805904846FFF7C5FF00286C
:102F700000F08A80DFF834A11C21304625F08CFF58
:102F8000DAF8093005465746002B50D0217806A8BC
:102F900024F0E4FDA279DAF809A022444B465278E5
:102FA00006A90220D047002841D16FF04402D4F88E
:102FB0000930984570D13D4F97F84A30002B67D0C3
:102FC000B7F875204FF6FF739A4261D0002521783B
:102FD00006A824F005FE2B462A460121009530461E
:102FE00001F02EFEB7F875102BF0D9F901464FF419
:102FF0008273042201F8015BCDE90232049597F84F
:1030000044300193A379234406AA5B7800933046A9
:10301000022301F09DFDA379E17925480133A371D5
:103020002BF0E8FA0023E37108B0BDE8F0871C221A
:103030000021284644F0AAFF28462CF005FB97F80B
:1030400044302B72A5F80A90B7F875204FF6FF733D
:103050009A4212D1217805F10D0024F07FFD03235F
:103060002B73A379234430465B786B75114B267222
:10307000AB6114F0EBF9002299E701232B73B7F849
:103080007530A5F80D30ECE70135C4F809505DE75F
:10309000304625F00DFDBEE7002AC5D00133C4F847
:1030A000093031462046FFF743FFBDE7CEAB002095
:1030B00085320000513100002DE9F341CFB20546C1
:1030C00038460C4625F054FDDFF88080C18806465E
:1030D000D8F8450000F0E1FF03460DF107017088C4
:1030E000A3B1FFF73DFE28BB9DF807300D2101FB82
:1030F0000384294620766076A076E0762046A77580
:103100000F30FFF715FF02B0BDE8F081FFF728FE92
:10311000064678B99DF807000D2303FB0080394669
:10312000437D0133437508482BF064FA002DEAD043
:10313000344600E015B1284625F0BAFC002CE2D058
:10314000E0B225F0B5FCDEE785320000CEAB002012
:103150002DE9FF471C21074625F09EFE314B93F8D1
:10316000432081464FF000081C46904514D32E4B57
:103170001B6873B9FFF794F9014650B90423009313
:1031800001974FF4BA7340F25B324FF0FF302CF0EE
:103190002BF804B0BDE8F087D97DB94203F10D03E7
:1031A00011D10D2303FB08430026DE75384625F0B8
:1031B000F9FE054650B16FF073036370A670E670B8
:1031C0002671012509E008F10108CEE701236070AE
:1031D000A070E070207184F84A300D2606FB084686
:1031E00002A8F17B24F0BAFCD4F809A0BAF1000FD0
:1031F00007D0737D1E4402A9B9F80A30327C28B288
:10320000D0470D2000FB08F804EB080208F10F0876
:10321000936901339361394604EB0800FFF788FE98
:10322000B7E700BFCEAB002014C1002070B50E463A
:1032300005460146304625F0BCFE8C2D0F4C03D1CF
:10324000072384F8783002E0B5B984F87850237801
:10325000052B06D194F8782000230C2130462CF061
:1032600013F800232370202384F88A303146044861
:10327000BDE870402BF0BEB90623E2E7CEAB0020DC
:1032800021F702002DE9F341054625F071FC0DF10F
:1032900005014088FFF764FD074600284AD19DF8E4
:1032A0000530274C0D2202FB0346717D307D88429C
:1032B00022D93144284691F81080032125F0AAFC38
:1032C00003223946044644F061FEF17B0DF106000D
:1032D00024F086FCBDF806301A49238084F8028069
:1032E000284630F029F9FF2803D129468A20FFF724
:1032F0009DFF02B0BDE8F081FF21022BF1730BD8D6
:1033000003FB022000F10F01C3F1030302305A4313
:103310002144204444F020FE94F84330013BDBB2CA
:1033200084F8433033B9D4F801208C2A08BF07232E
:1033300084F87830002DDCD0284625F0B9FBD8E79A
:10334000CEAB0020DD2D00002DE9FF47374E804633
:1033500025F00EFC96F800A0BAF1040F05465DD1E9
:1033600040880DF10D01FFF7FBFC814600285BD181
:103370009DF80D400D2707FB04670DF10E00F97B4A
:1033800024F02EFC2B793B75042B87F8159029D956
:10339000274B1A68994602BBFFF782F8014650B9DD
:1033A0003B7D40F25B32CDE900A34FF0FF3040F2AD
:1033B000B3332BF019FFD9F8003073B9FFF770F869
:1033C000014650B90423CDE9003340F25B3240F2AC
:1033D000B5334FF0FF302BF007FF0D2303FB0463E1
:1033E00004221A750D2202FB046302FB0464197D9A
:1033F0002B1DC5F1FF2505F57F051034FC35EA18B6
:10340000914206D80B4841462BF0F4F804B0BDE8D1
:10341000F08713F8012F04F8012BF0E76FF0070095
:103420004146FFF703FFF1E70020F9E7CEAB0020AC
:1034300014C10020853200002DE9F04F644C237840
:10344000042B8DB0064640F0BF80D4F801301C3309
:1034500004D100236370A370E37023711B213046F5
:1034600025F01AFD1B22014605A844F067FDBDF8B2
:10347000150003A924F018FF054620B9554B93F811
:10348000D03F9B0614D50621304625F005FDBDF83A
:10349000153043800380002383804F4930462FF04E
:1034A0004BFFFF2871D131468A20FFF7BFFE6CE049
:1034B000FF238DF80A302378BDF815909DF81FA0E2
:1034C000042B1FFA89FB10D10DF10A015846FFF7B2
:1034D00047FC68B194F84330032B04D88DF80A30C8
:1034E000013384F84330012703E06FF00705FAE762
:1034F0002F469DF80A80B8F1FF0F4BD0002F47D020
:1035000000220DF10B031146584624F0A1FE05469A
:1035100000283FD10D2303FB08439DF80B20DA73ED
:10352000187558750D2505FB08452B7D032B34D8E0
:10353000EA18013382F810A02B75002F43D0052123
:10354000304625F067FB05220546002144F01EFDAC
:1035500000236B700D2303FB0844A5F80290237D24
:103560002B711E4B1B6863B9FEF79AFF014640B9E9
:1035700000904FF45F7340F25B324FF0FF302BF05E
:1035800033FE174831462BF035F80DB0BDE8F08F0B
:10359000002DC7D0314628B287E7104B1B68002B9F
:1035A000CBD1FEF77DFF01460028C6D12B7D0193CC
:1035B0000423009340F25B3240F271334FF0FF304E
:1035C0002BF012FEB9E7304625F072FADDE700BFB6
:1035D000CEAB0020FCB000208536000014C10020D6
:1035E00085320000F7B50D460446FF260DF10601B1
:1035F00028468DF80660FFF7B3FBA8B31F4A92F880
:103600004330032B04D88DF80630013382F8433061
:103610009DF80670FF2F2AD000220DF107031146F6
:1036200028468DF8072024F013FE0646F8B9134B00
:103630000D2202FB07379DF80730FB73022120465D
:1036400025F0E8FA07460222314644F09FFC0C4977
:103650003D8020462FF089FFFF2803D121468A2094
:10366000FFF7E4FD03B0F0BD8DF80660D0E7002C55
:10367000F8D0204625F01CFAF4E700BFCEAB0020BE
:103680004933000037B5044625F072FA0546204656
:1036900025F088FC024658B969890DF10703A81C7A
:1036A00024F0FCFE69892046FFF79CFF03B030BD83
:1036B000204625F0FDF9F9E710B50D49A1F5BC72DA
:1036C000914201D800200FE08C1AE30F03EBE403D2
:1036D0005B1002EBC30452F83330834205DC02DA9C
:1036E00004F10802ECE7606810BD2146E8E700BF7E
:1036F000A4A5040008B5FFF7DFFF024B002808BFB0
:10370000184608BD16A404002DE9F743DDF828800B
:103710001F4605468946164601F0B0FAD0F8B0308B
:10372000EBB101F0ABFACDF80080D0F8B0403B46E9
:10373000324649462846A047044629464A4630466E
:1037400003F0F4F914F1450F05460CD150B142468F
:10375000314638462B4603B0BDE8F04318476FF0BA
:103760004404EAE70446204603B0BDE8F0832DE9AF
:10377000F041069F05461E4603F0EEF9044630B1BF
:103780003A46314628462346BDE8F0411847BDE891
:10379000F081B0F80F30B3F5A06F01D102F0A4BEF4
:1037A00070470020704770B51B2188B0054625F092
:1037B00073FB1B22014601A844F0C0FB01F05EFA36
:1037C000D0F8AC604EB101F059FAD0F8AC309DF8A9
:1037D000100098476FF01E0017E001F04FFAD0F884
:1037E0009C30002BF6D03421284625F055FB1D23B4
:1037F00003709DF8103043704660044601F03EFAB5
:10380000D0F89C3028469847606801F08BFA01A9EF
:103810000246284603F03BFA08B070BD10B5FF28F9
:1038200088B0044607D101F029FA0C4BC0F8583291
:10383000012008B010BD1B2125F02EFB1B220146E4
:1038400001A844F07BFB9DF8173023B921460448BA
:103850002AF0D0FEECE70020EBE700BF4800002094
:10386000A737000007B5054B00930023044A012148
:10387000184602F0BDFF03B05DF804FB1D380000E0
:10388000A3370000F8B50C46154607461E4600F063
:10389000F7FA0122002100F02EFC90B11223012240
:1038A0000021384601F0FEFF58B14368187840B94E
:1038B0001EB1052C05D90B2C02D1032D01D00020FF
:1038C000F8BD0120FCE7000037B5014604460022A0
:1038D0000F4825F084F80546B8B10E4B1B6873B944
:1038E000FEF7DEFD014650B90423009301954FF425
:1038F0009F6340F60F024FF0FF302BF075FC20461F
:1039000003B0BDE8304025F0D3B803B030BD00BFF0
:103910000144000014C1002013B5154AD2F8E03A62
:103920001BB1D2F8E43A2BB90123023302EB830333
:10393000C3F8D80AD2F8DC3ABBB9C2F8DC0A0D48A1
:1039400025F028F8044680B10B4B1B686BB9FEF7D5
:10395000A7FD014648B90423009301947D2340F656
:103960000F024FF0FF302BF03FFC02B010BD00BF44
:10397000FCB00020C144000014C10020F8B5124B77
:10398000D3F8843B04460BB1007898470F4F227858
:103990003A700025237C9D4202D3FF233B70F8BD83
:1039A000D4F81130C5EB05163344D3F80B3003B10E
:1039B0009847D4F81120B4F801102078324405F06B
:1039C000DDFE0135E6E700BFFCB000205800002016
:1039D0002DE9F04F4A4BD3F8DC3A8FB093F800C092
:1039E000079300225FFA82FEF44540F2868093003E
:1039F0000D93079BD3F8013053F822B003EB8201FB
:103A00000A919BF810300B930021012305911BE0D4
:103A10000599DDF82880C3EB03100C90C1EB01176A
:103A2000704658F8044B06940C9E247C09941D465D
:103A30000999A9420FD80130C0B28445F1D1059946
:103A4000013301310591DBB29DF814000B998142DD
:103A5000DED80132C6E7DBF81140E119089106997A
:103A6000E45BD1F8119009EB060A39F80690A145FC
:103A70003DD108999AF808A091F80890D14536D11F
:103A8000042C12D0192C10D0202C0ED040F20B7127
:103A90008C420AD040F201218C4206D0B4F5006F6E
:103AA00003D04FF657418C4221D1164B1B6813BBF4
:103AB000FEF7F6FC0546F0B9114B0D9AD3F8DC3A47
:103AC000D3F801309B58D3F811301F4401463B7A9C
:103AD000CDE901430823009340F60F02D1234FF0B4
:103AE000FF302BF081FB28460FB0BDE8F08F013589
:103AF000EDB20F369CE70025F5E70125F3E700BF9F
:103B0000FCB0002014C100204A2807B500F29A80BA
:103B1000072807D84FF0FF3000E01020C0B203B0F4
:103B20005DF804FBA0F10803422BF3D801A252F880
:103B300023F000BF413C0000A93C0000B13C000064
:103B4000AD3C0000B53C0000153D0000B93C000054
:103B5000BD3C0000413C0000153B0000153B00004F
:103B6000153B0000153B0000153B0000153B000015
:103B7000153B0000413C0000A93C0000B13C0000A6
:103B8000AD3C0000B53C0000153D0000B93C000014
:103B9000BD3C0000413C0000A93C0000B13C0000DD
:103BA000AD3C0000B53C0000153D0000B93C0000F4
:103BB000BD3C0000413C0000A93C0000B13C0000BD
:103BC000AD3C0000B53C0000153D0000B93C0000D4
:103BD000BD3C0000413C0000A93C0000153B00003A
:103BE000153B0000153B0000153B0000153B000095
:103BF000153B0000A93C0000AD3C0000BD3C0000AE
:103C0000153B0000153B0000153B0000153B000074
:103C1000153B0000153B0000C13C0000C13C00000A
:103C2000D53C0000153B0000153B0000153B000093
:103C3000153B0000D53C0000153B0000D53C0000C2
:103C400001206BE700F12003DBB2112B3FF662AFDE
:103C5000E03811283FF65EAF01A353F820F000BF13
:103C6000AD3C0000AD3C0000AD3C0000153B000049
:103C7000153B0000153B0000153B0000153B000004
:103C8000A93C0000A93C0000AD3C0000153B000031
:103C9000153B0000153B0000153B0000153B0000E4
:103CA000BD3C00001B3B0000022037E7042035E745
:103CB000032033E7052031E707202FE708202DE711
:103CC00000293FF427AF0878FF283FF423AF0130E5
:103CD000C0B223E700234828ADF806304FF00202B7
:103CE00001D043280CD10DF1060044F027F9BDF8AE
:103CF00006004FF6FF7398423FF40CAF02300DE719
:103D00000DF1060044F01AF9BDF806309B00ADF83D
:103D10000630ECE7062001E730B50B464A2B85B0AC
:103D20000446114629D8072B2ED9A3F10802422AAE
:103D30002AD8DFE802F02C304236292929752C29AF
:103D40002929292929292C304236292929292C30A9
:103D50004236293C29292C304236293C29292C304D
:103D600029292929292929292929292929292948A4
:103D700048552929292955295500F12B56D003D812
:103D8000E22B0ED0F02B4BD0204605B030BD0B7887
:103D900004F8013BF8E72046022244F0CFF8023451
:103DA000F2E72046042244F0C9F80434ECE7204648
:103DB000062244F0C3F80634E6E72046032244F026
:103DC000BDF80334E0E70029DED00D78FF2DDBD00D
:103DD0000135EDB220462A4644F0B0F82C44D3E732
:103DE0000022482BADF80E2001914FF002020DF198
:103DF0000E0001D0432B0BD144F0A0F8BDF80E50BB
:103E000001994FF6FF739D42BED00235ADB2E1E796
:103E100044F094F8BDF80E309B00ADF80E30EDE79D
:103E20002046082244F08AF80834ADE7102244F016
:103E300085F81034A8E700002038C0B20D289ABFDA
:103E4000014B185C00207047A4A504002D280FD852
:103E50001F2812D920380D280FD8DFE800F00707F7
:103E600007070E070E0E070707070E07012070470A
:103E7000A0F1E2035842584170470020704700000B
:103E800070B5134AD2F8E03A0146A3B11D7800207C
:103E9000A84208D2D3F8014054F8204026788E4238
:103EA0000BD00130F4E70023D2F8E44A1CB12578A6
:103EB0000022AA4203D3184670BD2346F4E7D4F883
:103EC000010050F8220006788E42F5D00132F0E76A
:103ED000FCB0002070B51B2188B0044624F0DCFF44
:103EE0001B22014601A844F029F89DF810603046D5
:103EF000FFF7C6FF9DF81A30BDF813209DF8171084
:103F000005463046FFF7BEFC20B9204624F0D0FD20
:103F100008B070BD06F010FF40B9D5F80330EBB91A
:103F2000204602F045FE024650B9F1E7BDF8130005
:103F300005F00FFF48B19DF812301B0705D47E2213
:103F400001A9204602F0E4FEE2E7BDF81310BDF837
:103F5000050005F0AFFE0028DFD1F0E7074BD3F8EE
:103F60008C3D33B9D5F80330204698470028D7D088
:103F7000CEE701A898470028D2D1F3E7FCB0002093
:103F800000F52D33F0B503F2A513104D03F00F0229
:103F900013462C469F1C05EBC70696F8DCCABCF1FD
:103FA000000F07D104EBC70383F8DC0AC3F8D81A63
:103FB0000020F0BDD6F8D86A002EF3D0013303F00C
:103FC0000F039A42E6D16FF01500F2E7FCB0002033
:103FD000F8B500F52D3303F2A513194903F00F02CC
:103FE000044613460E469D1C01EBC50090F8DC0A02
:103FF000A0421CD121F066FC28B1204624F0D2FF5B
:1040000008B131F00FFC06EBC507D7F8D80A58B154
:1040100021462AF0EFFA0020C7F8D80A06EBC505BA
:10402000002385F8DC3AF8BD6FF01B00F6E701339A
:1040300003F00F039A42D6D16FF01B00F3E700BFE5
:10404000FCB0002037B504460D46104619469DF8D1
:104050001C30E4B16268D2B13BB1E3785A0616D4A1
:104060009B0702D4882003B030BD069B00932A46EC
:104070002388FFF749FB411C0BD0821D0BD0831C0A
:10408000F0D010F1280F14BF00207E20EBE786202F
:10409000E9E78720E7E70020E5E738B3D0F81530F7
:1040A0002BB3B0F80130994223D0B1F5827F1ED0F6
:1040B0006FF48072881807284FF6FF728CBF0020BB
:1040C0000120914209D1B3F5827F12D04CF25E00FB
:1040D000834214BF0020012070474CF25E029142DF
:1040E00002D1B3F5827FF4E70028FAD170470020AF
:1040F00070470120FAE7F0B598B1077C0023BB4276
:1041000002D300242046F0BDD0F81160C3EB0315A4
:104110007419755B8D4202D1257A9542F2D0013334
:10412000EDE70446EEE700002DE9F04F87B0814649
:10413000109E0C4615461F4601F0B4FB824600282F
:1041400000F08680002E00F083809DF844302246E7
:10415000CDE9006349462B46FFF774FF804698BBC4
:104160003B462A46214648460096FFF700FB31466B
:104170009AF80200DAF804B0FFF7C6FC31460246AE
:10418000584643F0DBFE9AF80330590705D53B4605
:104190002A462146484605F07FF99AF803301A0767
:1041A00012D52D4B0393039B53F804BB0393BBF130
:1041B000000F09D04FF0000A9BF800309A4507D352
:1041C000264B039A9342EED1404607B0BDE8F08FEC
:1041D0004FEA8A030493DBF8013053F82A0003788E
:1041E0004B4532D02A462146FFF785FF0028E3D011
:1041F000394601F053FA02900028DDD0DBF8013097
:10420000049A9B582146187800962A463B46FFF7A9
:10421000AEFA029B5B680593029B31469878FFF7E4
:1042200073FC059B02463146184643F087FE029B0D
:10423000DB785B0709D5DBF80130049A98582146F2
:1042400000783B462A4605F027F90AF1010AB3E750
:104250004FF00108B8E700BFDCBB0020E4BB002042
:104260002DE9F84F07EE903ADFF89C8005460E46A0
:1042700091464FF0000B58F8047B07B3002D3ED059
:104280003A78002423469A4204F1010401D8E5B1AA
:1042900012E0D7F8011051F823301B78AB42F1D16E
:1042A0000025F4E7012078B117EE901A5046FFF789
:1042B000F4FE48B19AF800B0124B4345DBD15846A2
:1042C000BDE8F88F4A4612E001343B78A342F3D9A7
:1042D000D7F80130B9F1030F53F824A0F2D101222D
:1042E00031465046FFF707FF0028DBD10222314656
:1042F0005046FFF700FF003818BF0120D3E72C46D7
:10430000C5E700BFE4BB0020DCBB002037B51B21A4
:10431000054624F0C1FD037BFF2B044630D1037D0D
:10432000B0F80F10002B08BF0122B0F8113018BFF1
:1043300002220020FFF794FF28B9284603B0BDE809
:10434000304024F0B5BB207300221148294624F0E8
:1043500046FB0446D0B10F4B1B68002BEDD1FEF796
:104360009FF801460028E8D104230093019440F20D
:10437000525340F60F024FF0FF302AF035FFDCE7D2
:10438000284603B0BDE83040FFF7A4BD03B030BD00
:104390000144000014C1002030B589B004461B223E
:1043A000002101A843F0F2FD01A9204602F0A6F980
:1043B00001A905460246204618F08AFCB8B92046F5
:1043C00024F0D6FB037813F0040F14BF052103215A
:1043D000204624F097FC1B21204624F05DFD1B2283
:1043E00001A943F0ABFD25B92046FFF78FFF09B0C7
:1043F00030BD2A4601A9204602F08AFCF7E70000FA
:104400002DE9F041CDB207461B21284624F044FD9A
:1044100004462946384624F0CCFB94F80C80124E12
:1044200029F096FF3946B0FBF6F6104832462AF0DE
:1044300007FA237DB4F80F10002B0CBF01220222D3
:10444000B4F811304046FFF70BFF20B92846BDE80D
:10445000F04124F02DBB2073324629460448BDE8C4
:10446000F0412AF0EDB900BF7CF0C107D53E000055
:10447000C93800002DE9F84F104C06460A4604F1F1
:10448000080A4FF0000854F8047B8FB197F800B089
:104490000025AB450AD9D7F8013053F825903146AD
:1044A0004846FFF728FE30B199F800805445EAD11C
:1044B0004046BDE8F88F0135EBE700BFDCBB0020CC
:1044C00013B50446B8B9144824F064FA044680B120
:1044D000124B1B686BB9FDF7E3FF014648B9042393
:1044E00000930194402340F60F024FF0FF302AF072
:1044F0007BFE02B010BD01212020FFF7BBFF01466B
:10450000204621B102B0BDE8104004F035BC02B035
:10451000BDE8104024F0CCBAC144000014C1002012
:10452000F0B50E4D00244FF6FF7155F8042B72B113
:10453000177800239F4209D9D2F8016056F823600A
:1045400096F800C0844506D1B6F801100CB10846B3
:10455000F0BD0124E9E70133ECE700BFDCBB00203C
:1045600038B504460D46FFF7DBFF44B1B0F5827F56
:1045700005D14FF65743EB1A5842584138BD002039
:10458000FCE700002DE9F84F114C06460A4604F1FD
:10459000080A4FF0000854F8047B37B197F800B0D0
:1045A00000255D4504D35445F5D14046BDE8F88F5C
:1045B000D7F8013053F8259031464846FFF79BFD68
:1045C00010B1037A934201D00135EAE7C846EAE721
:1045D000DCBB002038B51B2124F05EFC0446007BC8
:1045E000FFF74EFC257DB4F80F10002D0CBF012203
:1045F0000222FFF780FD124A127A012A034614D0E4
:10460000217EA27D61B1002A14BF84208320A3B142
:10461000012D0CD11B7A13F0020F18BF002038BDFA
:10462000002A0CBF81208220F1E78120EFE7002DD6
:10463000F5D11B7A13F0010FEFE7C320EFE700BFBE
:10464000600D002007B5042201460DEB020043F087
:1046500075FC019803B05DF804FBF7B501911021DA
:1046600016461F46054624F017FC044628461DF052
:1046700043FF9523032E23609DF8203008BF019946
:10468000A37316BF01A90822022227716671A01D1B
:1046900043F054FC0998294629F0ACFF03B0F0BD63
:1046A0002DE9F04F87B01F46BDF8443001939DF8C7
:1046B0004C300293BDF8583003939DF85C309DF860
:1046C0004090BDF848B004930D461646DDF8508082
:1046D0009DF854A0044624F04BFA0378817813F037
:1046E000030F0CBF012300235A464846FFF7CAF8C0
:1046F00098B9B8F1000F0AD03B4632462946204609
:10470000CDE9109807B0BDE8F04FFFF7A6BF2046EF
:1047100007B0BDE8F04F24F0CBB91821204624F0B3
:10472000BBFB18220021059043F030FC059BDE7393
:104730002A681A606A685A60019A1A81BAF1010FF0
:10474000029A1F7383F80D90A3F80AB09A7305D1EB
:10475000039A5A82049A1A7583F811A0012E06D082
:1047600029884FF6F77291429CBF04221A74414681
:104770002046FFF705FC0028BED1012030F0FAFFEB
:104780000348214607B0BDE8F04F29F033BF00BF12
:10479000958E01002DE9F04F87B01F46DDE913A388
:1047A0009DF84090BDF848B00393884616460546EC
:1047B00024F0DEF90378817813F0030F0CBF012396
:1047C00000235A464846FFF75DF898B9ADF81080C7
:1047D000BAF1000F08D0CDE9009A3B46324604A951
:1047E0002846FFF73AFF02E0284624F061F907B0B7
:1047F000BDE8F08F1821284624F04EFB182204460D
:10480000002143F0C3FBBDF84430E673012EA4F849
:104810000080277384F80D902381A4F80AB005D096
:104820004FF6F77398459CBF0423237451462846DE
:10483000FFF7A6FBA8B903990D484FF47A7343F626
:10484000FF3203FB01224FF470530121B2FBF3F25C
:10485000039229F0F5FF039A0648294629F0F0FF54
:10486000C5E7CDE9009A3B4632462146B8E700BF8E
:1048700075570300958E0100A1F5E0630B2B04D959
:10488000A1F500635842584170470120704700006D
:104890002DE9F04F2DED028B8BB08A46069318213F
:1048A000BDF8583004920593064624F0F5FA044604
:1048B000304624F05DF9237B94F80DB0B4F80A90EB
:1048C0008178E77B08EE103A037813F0030F8046F7
:1048D0000CBF012300234A465846FEF7D3FF054686
:1048E000B0B9049B73B1CDE900B33A4618EE103A63
:1048F00021463046FFF7B1FE28460BB0BDEC028BD7
:10490000BDE8F08F304624F0D3F86FF00705F3E7E9
:1049100020894946FFF7B0FF0546BAF1000F17D0CE
:104920005146304624F0CBF90790304624F02AF95E
:10493000079B83420CD95146304624F0C0F9824689
:10494000304624F01FF9AAEB0001304624F0B4FAF7
:10495000012F11D0E37B022B04D122884FF6F7738D
:104960009A4209D8484605F0D9F928B1069B1BB9E7
:10497000237C43F0040323741DB1237C43F008031C
:10498000237412F075FC054600285DD106F0D4F9B9
:10499000002859D0484605F0DCF9002854D00822F8
:1049A000294608A843F0F2FA022F3AD0032F3ED04E
:1049B000002F08BF002518BF6FF0270506F0BCF9CF
:1049C00000283AD0002F38D045B908A812F080FC52
:1049D00020B1022108A832F039F988BB5A4B1B6874
:1049E00073B9FDF75DFD014650B90423009340F60D
:1049F0000F03CDF804901A464FF0FF302AF0F4FB75
:104A00006FF02705049B002B3FF476AFCDE900B390
:104A10003A4618EE103A21463046FFF71EFE0025B2
:104A20006AE7208808A923F03FFC051EC3E7082297
:104A3000214608A843F082FAC0E7002DCED1C8E78E
:104A4000237C43F00103237449465846FFF788FD51
:104A500068B10822002108A843F098FA022F1ED05E
:104A6000032F52D03FBB237C43F0010323740499EE
:104A70003046FFF785FA05460028C3D1304624F0BA
:104A800077F80378DB0602D4012030F073FE059B33
:104A9000002B53D131462D4829F0ACFD2CE720885E
:104AA00008A923F001FC054630B9022108A832F01C
:104AB000CDF80028D7D10025234BD3F800A098F8D3
:104AC00002300B2B27D198F800305A0723D198F8E1
:104AD0000430012B1FD1BAF1000F12D1FDF7E0FC19
:104AE000014670B9CDF8089098F803300193082377
:104AF000009340F60F0240F657034FF0FF302AF0C4
:104B000073FB002D7FF47EAFB1E70822214608A891
:104B100043F014FAC9E7BAF1000F7FF471AFFDF763
:104B2000BFFC00287FF46CAF04230093CDF8049001
:104B300040F65E0340F60F0251465DE7059A0348D2
:104B4000314629F07DFED7E614C10020958E010084
:104B50002DE9F74F1D469DF8303001930F46BDF803
:104B60003C300093182190469DF834B0BDF838A031
:104B7000DDF84090064624F08FF918220446002103
:104B800043F004FA032D0CBF082202224146E573CC
:104B9000204643F0D3F9019B2373009B63814A466F
:104BA00000233946304684F80DB0A4F808A00C93D1
:104BB00003B0BDE8F04FFFF76BBE2DE9F04F87B0B3
:104BC0001D46BDF848300193BDF84C3002939DF866
:104BD000543003939DF8583005930F46BDF85C3070
:104BE0000493182190469DF840B09DF844A0DDF84C
:104BF0005090064624F050F918220446002143F054
:104C0000C5F9032D0CBF082202224146E573204658
:104C100043F094F9019B2381029B6381039B2374DE
:104C2000049B84F80CB084F80DA01093059B4A46B1
:104C30003946304607B0BDE8F04FFFF729BE000007
:104C4000F7B5089F01920C461E4624F01DF80A4B4A
:104C500000F8014B93F8D85A01996A1C14F0040F1C
:104C600083F8D82A01D029F09AFB057046700230EB
:104C700007B13D7003B0F0BDFCB0002000487047A4
:104C8000D4BB002000487047600D002002289DBF63
:104C9000024B187000206FF005007047600D002077
:104CA000014B187A704700BF600D002001289DBF9E
:104CB000024B187200206FF005007047600D002055
:104CC000174B1B7853B3932813D8802826D9A0F10B
:104CD0008103122B22D8DFE803F00A0A0A0A2121F5
:104CE0002121211E212121211C1A1A201A00812094
:104CF0007047C22811D006D800F14003DBB2012B67
:104D000098BF01207047C42808BF002070470120C9
:104D100070477E207047002070477F20704700BF9B
:104D2000600D002010F10A0F10D010F1090F0ADAFF
:104D300010F11F0F0CD017300CD0074B187A012838
:104D400018BFC02070470028F7D1704785207047F2
:104D5000812070478720F8E7600D00202DE9F0479B
:104D600088B00746ADF81E1023F08EFF08230370AD
:104D70000446FFF783FF0378DFF8B8A05A1C0270DF
:104D800063700A23A3702A4B93F80080033499467A
:104D9000B8F1050F37D801223AF818301146C4206F
:104DA00000F080FD064610B301214CF25D20FFF7B4
:104DB00063FD2146F0B1384623F081FFC0F5CA6398
:104DC00001339DB27168B078FEF79EFE03308542D4
:104DD00017D33188204629F0E2FAB17800F8011B98
:104DE0007268FEF799FF0023044689F8003008F145
:104DF0000108CDE7384623F062FFC0F1520085B2CA
:104E0000E0E789F8008001230022CDE903324CF26B
:104E10005D21C423CDE9013100930DF11E0202236F
:104E200021463846FFF794FE08B0BDE8F08700BF82
:104E30006D0D0020B2A50400064A127803462AB17F
:104E4000032A03D04FF6FC71FFF788BF184623F002
:104E50002FBE00BF6E0D002038B5044620B9BDE856
:104E60003840204823F096BD1F4D2A7892B3032A7C
:104E700030D0012208231146C42000F013FD4368FE
:104E800019884FF6FF739942204620D1FFF7D4FFCF
:104E900000221448114629F09BFE2B78022B20D1CA
:104EA00001231A461946C42000F0FCFCB0B1436847
:104EB00018880F3880B229F035FA0F3080B24222BC
:104EC0004243BDE838400748002129F0B9BCFFF74C
:104ED00045FFDDE7204623F0EBFDD9E74FF4967060
:104EE000E7E738BD594E00006E0D002073B5224D26
:104EF0000E46044640B92A7822B901231F482B7078
:104F000023F06DFD02B070BDFFF7B8FED0F89C3005
:104F10005BB3342120468DF8046023F0BDFF3422BA
:104F2000002143F033F83421204623F0B5FF6523F8
:104F300003703421204623F0AFFF00264660342161
:104F4000204623F0A9FF34218660204623F0A4FFE9
:104F500001ABC3603421204623F09EFF0661FFF7BA
:104F60008DFED0F89C3020469847002320462B70B9
:104F700023F09EFDC6E700BF6F0D0020ED4E000040
:104F800010B510B90F4B187010BD0128FCD10E4B95
:104F900019780129F8D10B4C2278012A09D80B483D
:104FA00023F0F8FC0A4823F0F5FC23780133237042
:104FB000EAE7032200201A702070BDE81040FFF7D6
:104FC00095BF00BF6C0D00206E0D00201950000031
:104FD000394E0000002208B50D48114629F0F8FDB1
:104FE0000C4B1B78022B12D101221146C42000F079
:104FF00059FC48B143681B88054842225A430021A6
:10500000BDE8084029F01CBC4FF49673F4E708BDD6
:10501000195000006E0D002070B5044688B020B90C
:10502000204823F0B7FC08B070BD1F4B1B78ABB312
:10503000032B33D01EF0B2FFADF81E00204623F044
:1050400023FE002606700546FFF718FE03785A1C5B
:10505000027008216B70AE70E81C29F0A0F90921DC
:1050600029F09DF90A2129F09AF901254CF25D23D6
:10507000CDE90235C4230146CDE900330DF11E020E
:10508000049602232046FFF763FD084840F2BC72F5
:10509000294629F0D5FBFFF79DFFC4E7204623F002
:1050A00007FDF8E7195000006E0D0020814F000049
:1050B0002DE9F7430022FF210546334829F088FDFA
:1050C0002AF018FB804620B1304F3B780BB1032B00
:1050D00005D1284603B0BDE8F04323F0E9BC4FF00A
:1050E0000009284623F04EFD02283AD9284623F02D
:1050F0003FFD0446A8B38078FFF7E2FDA07008BB2F
:10510000E078211DFEF700FD061D2846F6B223F0CB
:1051100039FD284623F036FD864222D831462846FE
:1051200023F0F0FDA278002ADBD12388082B0BD1D5
:1051300001920434012200941146C420FEF7F4FFCA
:10514000C146CEE70326E4E7092BF1D00A2BC8D1EC
:1051500001920434012200941146C420FEF7E4FFBA
:10516000BFE7B9F1000FB4D0094B002119703B78AB
:10517000012BAED1022340F2DE3206483B7029F00B
:105180005FFBFFF727FFA4E7814F00006E0D0020B3
:105190006C0D0020594E000038B5054623F0E8FCA0
:1051A00090F84B30044653B901462322104842F090
:1051B000C5FE1048282204F1230142F0BFFE0C4C2A
:1051C000D4F84B0070B194F84F1029F013FA002373
:1051D00084F84F3084F84B3084F84C3084F84D30EC
:1051E00084F84E302846BDE8384023F061BC00BF4B
:1051F00068AB00208BAB002070B5094CD4F84B3065
:1052000005460E464BB907488F212DF071FD18B9A0
:10521000C4F84B6084F84F5070BD6FF00300FBE79B
:1052200068AB0020995100002DE9F04F1B218BB095
:10523000834623F031FE054690F813A0584623F02C
:1052400097FCBAF1150F82780CBF14231B239A42E6
:1052500088BF83708046FFF711FD407823F014FD6E
:105260002B7E2A7D002B14BF04230023002A0CBFB1
:10527000082200221343044643F0100304F8013BC4
:105280002B7E2BB12046B5F8191029F088F804467A
:105290006B7D2370BAF1150F0CBF16230D236370BD
:1052A000287BFEF7EDFD2B7DB5F80F10002B0CBF12
:1052B00001220222FEF71FFF00274368A7704188E2
:1052C0000246E61C00296DD14FF6FD7330460222DE
:1052D0000DF12601ADF8263042F030FE2123BAF15F
:1052E000150F63714FF0010312BFA61DA371E61DD8
:1052F000A370FFF7C3FC002340780493B5F80F3088
:105300000393B5F8113002932B7B0193EB7A009352
:105310006A1C02233146FFF71BFCFFF7AFFC80F845
:1053200001B00BB0BDE8F08F1888B8F800C081B2AA
:105330008C4535D8000433D4BAF1150F19D195F83E
:1053400018C001F48040BCF1000F10D088B90137BB
:105350005188F8B20139814203D998F802C0CC458E
:10536000E2D881428CBF00210121A170C1E7002851
:10537000EDD13046CDE9063229F011F8069B079AA7
:1053800099780170BAF1150F08BFD97809F10109B0
:1053900009BF01F00301461C4170861C5FFA89F9C0
:1053A0000833D4E7B946D3E72DE9F04707460E4660
:1053B000904623F0D3FA0546002854D0318842465F
:1053C0003846FEF7E6F9FFF759FCD0F89C30F3B108
:1053D0003421284623F060FD71680446B078FEF75A
:1053E00093FBB3784A2B814616D8402B08D9413B12
:1053F0000122DBB202FA03F340F2872213420DD1FD
:105400004A46414604F10C0042F098FDCCB92846CA
:10541000BDE8F04723F04CBBF12BF1D149462846BB
:1054200023F0F8FB34218246284623F035FD04465C
:105430004A464146504642F081FD84F80C90C4F83B
:1054400010A0002323703B7B6370B378A370B7F880
:105450000F30238133886381FFF710FCD0F89C3034
:1054600028469847D3E7BDE8F087000010B5074904
:105470000446FFF7C1FE043006D121460448BDE8CA
:105480001040002229F0DCB910BD00BFBF5600005B
:105490006D54000038B5044608464A2811461D469A
:1054A00000F29080072801D8204638BD08384228ED
:1054B000FAD801A353F820F0295600003156000015
:1054C000555600003D560000615600004956000048
:1054D0006D5600008556000029560000A9540000B2
:1054E000A9540000A9540000A9540000A9540000C8
:1054F000A9540000A95400002956000031560000AC
:10550000555600003D560000615600004956000007
:105510006D560000855600002956000031560000E7
:10552000555600003D5600006156000049560000E7
:105530006D560000855600002956000031560000C7
:10554000555600003D5600006156000049560000C7
:105550006D560000855600002956000031560000A7
:10556000A9540000A9540000A9540000A954000047
:10557000A9540000A9540000315600003D56000017
:1055800085560000A9540000A9540000A954000049
:10559000A9540000A9540000A95400007956000045
:1055A0007956000079560000A9540000A954000063
:1055B000A9540000A954000079560000A954000025
:1055C0007956000000F12003DBB2112B3FF66CAFDF
:1055D000E03811283FF668AF01A353F820F000BF70
:1055E0003D5600003D5600003D560000A954000005
:1055F000A9540000A9540000A9540000A9540000B7
:1056000031560000315600003D560000A9540000FC
:10561000A9540000A9540000A9540000A954000096
:105620008556000091560000137804F8013B3BE7D3
:105630002046022242F082FC023435E72046042252
:1056400042F07CFC04342FE72046062242F076FC30
:10565000063429E72046032242F070FC033423E796
:105660002046052242F06AFC05341DE72046072249
:1056700042F064FC073417E720462A4642F05EFCFD
:105680002C4411E72046082242F058FC08340BE76E
:105690002046102242F052FC103405E710B50346B4
:1056A0004068002200B910BD04888C42FBD05C88A1
:1056B0000132944200F10800F4D80020F3E72DE90C
:1056C000F04F1B218FB0074623F0E6FB437B0546D6
:1056D000C3F34013007B0893FEF7D2FB2B7DB5F894
:1056E0000F10002B0CBF01220222FEF704FD8146A1
:1056F000FFF7C4FA407823F0C7FA2B7E2A7D002BEF
:1057000014BF04230023002A0CBF082200221343E5
:1057100043F0100300F8013B2B7E1BB1B5F81910C4
:1057200028F03DFE6B7D037001234370841C3846D6
:1057300023F01EFA0990384623F024FA43080A930E
:105740004FF000080A9B5FFA88F1994253D2099BF7
:10575000022203EB41010DF1360042F0EFFBBDF8F0
:1057600036104846FFF79AFFB5F80F100646B5F811
:105770001100FFF781F808B3FFF780FA214640785F
:1057800023F09DFAC0F5CA6A0AF1010AFEB9BDF814
:1057900036104FF6FD73994261D10DF136010222A8
:1057A000204642F0CBFB2123A670E3700121201D8F
:1057B00028F0F5FD044608F10108C3E7FFF75EFA9B
:1057C0002146407823F07BFAC0F1520ADEE7716887
:1057D000002944D0F37813F0400B40D1DA0728D4E5
:1057E0009B073ED5FFF75CFA01280CBF7E268F266B
:1057F000BAF1020F39D8FFF741FA089A407800232E
:10580000CDE90432CDE90633B5F80F300393B5F88E
:10581000113002932B7B0193EB7A00936A1C0223D5
:105820002146FFF7CAF9FFF729FA47700FB0BDE824
:10583000F08FB078FEF768F9011D8A4513D33188DF
:105840000B90204628F0ABFD80F800B0B1780B9BA0
:10585000417072689BB20230FFF71CFEAAE78626F1
:10586000C6E70126C4E78926C2E72046BDF8361000
:1058700028F095FD044604F8016B9CE710B51B2148
:10588000044623F009FBB0F80F2040F605339A4296
:10589000204603D1BDE81040FFF7E8BDBDE8104049
:1058A000FFF70DBF13B51C46CDE90021FEF7E8FA5E
:1058B000DDE90021FEF71FFC214602B0BDE81040E3
:1058C000FFF7ECBE2DE9F04F2DED028B1B218DB0C3
:1058D000074623F0E1FA0446007BFEF7D1FA237D68
:1058E000B4F80F10002B0CBF01220222FEF703FCBC
:1058F000E37C052B08EE100A7BD0FFF7BFF9407858
:1059000023F0C2F9237E227D002B14BF0423002341
:10591000002A0CBF08220022134343F0100300F8B2
:10592000013B237E1BB1B4F8191028F038FD637DCC
:10593000037004234370851C384623F019F9804610
:10594000384623F01FF9002309900B9301269DF898
:105950002C300A93099B032B52D9B8F1000F53D076
:1059600098F8020008F10301FEF7CEF80330C0B248
:10597000C146099B984200F2F2801B1A80440993A9
:10598000B9F1000F00F0EB80B9F8001018EE100A22
:10599000FFF784FE8246002838D14FF6FD73994206
:1059A00014BF4FF0860B4FF0880BE27C052A1ED007
:1059B0000DB3B4F80F10B4F81100FEF75DFF002826
:1059C00060D0FFF75BF92946407823F078F9C0F5FD
:1059D000CA600130022894BF0026012666B128461D
:1059E000022200F801BB494642F0A8FA033500261E
:1059F00002E00025A0E72E460B9B01330B93A6E7A0
:105A00004FF00009FF20B4E7C146FBE74368002BD5
:105A100032D0827899F802309A4230D1237DB4F89E
:105A20000F20217B002B09F103030A934FF00103A0
:105A300001930A9B00930CBF01230223FEF702FB94
:105A400083460028B1D1E37C032BD5D0237DB4F865
:105A50000F10207B0022002BBAF8003001920A9A26
:105A600000920CBF01220222FEF75EFB0A9A514609
:105A70002046FFF799FCBFE74FF0860B95E74FF004
:105A80008D0B92E7FFF7FAF82946407823F017F9D3
:105A9000C0F152009EE70023FF207CE04B46FBE76D
:105AA000E37C052B53D02EB10DB30A9BFBB1002331
:105AB00005F8013B002F42D0FFF7E0F800234078C3
:105AC000CDE90633627BC2F34012CDE90432B4F86B
:105AD0000F300393B4F811300293237B0193E37AE0
:105AE0000093621C02232946FFF767F827E0FFF7BF
:105AF000C5F8407823F0C8F8237D002B0CBF18238D
:105B000010230370637D43700B238370E37CC370A9
:105B1000802303710546FFF7B1F80027407804970A
:105B2000B4F80F300393B4F811300293237B019340
:105B3000E37A0093621C0223691DFFF709F8FFF75F
:105B40009DF847700DB0BDEC028BBDE8F08F384674
:105B50000DB0BDEC028BBDE8F04F22F0A9BFE37C95
:105B6000032B9DD1002EA5D0384623F001F88146A5
:105B7000384623F007F88246BAF1030F8BD9B9F102
:105B8000000F8BD099F8020009F10301FDF7BCFF6B
:105B90000330C0B24B46504582D88144AAEB000A7C
:105BA000002B3FF47DAF984618EE100A38F8031B1F
:105BB000FFF774FD237DB4F80F108346002B4FF0E0
:105BC0000002207BBBF80030CDE900820CBF01222F
:105BD0000222FEF7A9FA424659462046FFF7E4FBA7
:105BE000CAE700002DE9F04F1B2189B0804623F061
:105BF00053F90546FFF742F8407823F045F82B7E2D
:105C0000002B14BF1C23182300F8013B2B7E1BB173
:105C1000B5F8191028F0C3FB6B7D0370092343709E
:105C2000841C287BFEF72CF92B7D0690002BB5F801
:105C30000F100CBF01220222FEF75DFA814640469A
:105C400022F0A0FF022840F2C080404622F090FFE0
:105C5000002800F0BA8090F800B0B0F801A003214D
:105C6000404623F04FF8B5F80F10B5F81100FEF7D5
:105C700003FE00283CD0FFF701F82146407823F0CE
:105C80001EF8C0F5CA60013086B2032E40F29D8036
:105C900051464846FFF702FD0746002800F08A807B
:105CA0004368002B00F08680C3785B0740F1898051
:105CB000069899F80820B9F800100078534603F0C8
:105CC000D7FA079000287ED0092E7ED900222270B4
:105CD00084F801B0A01C514628F061FB079B0446E4
:105CE000BBF1000F0DD0BBF1010FA8D1198A3DE027
:105CF000FEF7C4FF2146407822F0E1FFC0F15200D8
:105D0000C2E7BA7800F8012B5A8A198A079328F05B
:105D100052FB0446B878FEF799F800288FD0BA787D
:105D2000079B203A0B2A8AD801A151F822F000BF24
:105D3000615D0000695D0000855D0000955D00000B
:105D40003F5C0000A55D00003F5C00003F5C000080
:105D5000615D0000755D0000855D0000955D0000DF
:105D60001B7D04F8013B6AE7998A204628F017FB5F
:105D7000044664E72046022203F1140142F0DEF8F3
:105D800002345CE72046032203F1140142F0D6F806
:105D9000033454E72046042203F1140142F0CEF804
:105DA00004344CE72046062203F1140142F0C6F801
:105DB000063444E78623237084F801B05146A01CC2
:105DC000D4E78C23F7E78B23F5E7FEF757FF002393
:105DD00040780493B5F80F300393B5F8113002936F
:105DE0002B7B0193EB7A00936A1C02232146FEF77A
:105DF000AFFEFEF743FF80F8018009B0BDE8F08FE9
:105E00002DE9F04F2DED028B1B218DB0074623F0BD
:105E100043F80546007BFEF733F82B7DB5F80F10ED
:105E2000002B0CBF01220222FEF765F908EE100AD2
:105E3000FEF724FF407822F027FF2B7E002B14BFB3
:105E40001C23182300F8013B2B7E1BB1B5F8191059
:105E500028F0A5FA6B7D03704FF0000B0723DFF8E5
:105E6000F8A14370841CD846384622F08BFE0428E3
:105E700046D800264FF0FF09384622F083FE8145C0
:105E800000F2C1804946384622F03CFF002E00F067
:105E9000BA80B6F8011018EE100AFFF7FFFB33784E
:105EA00008F10108002B5DD1002846D14FF6FD7B9B
:105EB000594514BF4FF0860B4FF08C0BB5F80F10FF
:105EC000B5F81100FEF7D8FC002800F09280FEF72C
:105ED000D5FE2146407822F0F2FEC0F5CA630133B8
:105EE0009BB2032B09D984F800B033786370A01CEF
:105EF000B6F8011028F053FA04464FF0010BB3E74F
:105F0000384622F035FE06460028B2D00378012B31
:105F10000DD0C078FDF79AFF60B1F078FDF78CFFE7
:105F200008305FFA80F9384622F02CFEA4E74FF0E3
:105F30000509A1E74FF008099EE74368002B4CD004
:105F40008378412B49D003F0FD02482A45D0C2781E
:105F5000520745D5F2789A4245D1F38813B1B288F9
:105F60009A4243D82B7B8DF824302A7CEB7B43EA82
:105F70000223ADF82A30EB7A8DF82530B5F80130E0
:105F8000ADF826306B7CAA7C43EA0223ADF82830BA
:105F90002B7D002B0CBF0123022309A930468DF86D
:105FA0002C3003F031FC00283FF45EAFDAF800201B
:105FB00082B90790FCF774FA079B014650B9019328
:105FC0000423009340F6120240F2D4434FF0FF3016
:105FD00029F00AF94FF0010B70E74FF0860B6DE7DF
